:020000040020DA
:10200000C0420020C598200043FB200041FB200077
:1020100041FB200041FB200041FB200000000000AC
:1020200000000000000000000000000041FB200054
:1020300041FB20000000000041FB20006BEE20006F
:10204000B9F42000BFF42000C5F42000CBF4200038
:10205000000000004BFE200051FE200041FB20004C
:1020600041FB200000000000000000000000000014
:10207000000000000000000041FB20000000000004
:10208000000000000000000041FB200041FB200098
:1020900041FB200041FB200041FB200041FB2000D0
:1020A00041FB200041FB200041FB200041FB2000C0
:1020B00041FB200041FB200041FB200041FB2000B0
:1020C00041FB200041FB200041FB200041FB2000A0
:1020D00041FB2000000000000000000000000000A4
:1020E00000000000000000000000000000000000F0
:1020F000000000000000000031CB200041CB200098
:1021000000000000000000000000000000000000CF
:1021100000000000000000000000000000000000BF
:1021200000000000000000000000000000000000AF
:10213000000000000000000000000000000000009F
:10214000000000000000000000000000000000008F
:10215000000000000000000000000000000000007F
:10216000000000000000000000000000000000006F
:10217000000000000000000000000000000000005F
:10218000000000000000000000000000000000004F
:10219000000000000000000000000000000000003F
:1021A000000000000000000000000000000000002F
:1021B000000000000000000000000000000000001F
:1021C000000000000000000000000000000000000F
:1021D00000000000000000000000000000000000FF
:1021E00000000000000000000000000000000000EF
:1021F00000000000000000000000000000000000DF
:1022000000000000000000000000000000000000CE
:1022100000000000000000000000000000000000BE
:1022200000000000000000000000000000000000AE
:10223000000000000000000000000000000000009E
:10224000000000000000000000000000000000008E
:10225000000000000000000000000000000000007E
:10226000000000000000000000000000000000006E
:1022700041FB2000A12F2000C52F20006D3520003C
:10228000D54A20006D6F200041FB2000024A1368F0
:1022900043F030031360704700700D400E2870B596
:1022A00006460BD1134B1C6844F00200186012481C
:1022B000056825F03F0343F0010303600F480368FE
:1022C00023F0FF031A43114331430D4A01601368A1
:1022D0001B06FCD50B4B0C4A1B68106803F0FC0373
:1022E00043EA00230E2E18B201BF034B1D60014BC1
:1022F0001C6070BD34000144F486084008700D4035
:1023000000700D400C700D4010700D40FF2310B593
:10231000064C4FF4FA60236000F0CCFE302200211E
:102320000620FFF7BBFF0023236010BD00920D4085
:10233000802870B51ED100240F4E104D3368224600
:1023400023F0800333602B68072143F080032B6068
:102350000B4B20461C6001F01BFE3368012223F06A
:10236000400333602B68062123F0400320462B6096
:1023700001F00EFE002070BD20940D4000940D4031
:1023800000920D400A4608B50146054802F026FCB9
:1023900004480DF0E2F904480DF0DFF9FEE700BF54
:1023A00088032100AD032100CC0321002DE9F34176
:1023B00003880446BBB1B3F5867F2DD1822915D1A0
:1023C0000DF086F8BFF35F8F0022164B1E681A606F
:1023D000BFF35F8F0DF080F8134D144FDFF850807E
:1023E00055F8040B20B94FF486732380012016E0C2
:1023F00090F8493026FA03F3DB07F1D501F0A2F992
:102400000028EDD03B684246009355F8043C022179
:10241000184601F043F9E3E700230380032002B0EC
:10242000BDE8F0811C040020400000206032002044
:102430008D242000034A136803430348136002F00D
:10244000EFBC00BF1C040020D401002013B50446DB
:1024500090F84A308021013380F84A30084B094A0D
:102460001B6800930346203001F018F92246002033
:10247000054B197802B0BDE8104002F091BC00BFD6
:10248000603200204D242000B13A002073B504468C
:1024900001F058F940B304F12006304601F052F93A
:1024A000054620460CF0A6FC012815D1E5B1002513
:1024B0000E4B0F4A1B687E2100933046234684F85A
:1024C0004A5001F0EBF822460A4B2846197802B030
:1024D000BDE8704002F064BC30B92DB9304601F05F
:1024E0001BF92246044BF0E702B070BD60320020B9
:1024F0004D242000B23A0020B03A00202DE9F843E4
:1025000002F0ECFB334B344E187002F0E7FB334B18
:10251000334D187002F0E2FB324B334F187000233A
:10252000B360324BDFF8D080DFF8D090736055F89D
:10253000041B39B92E4802F05BFCBDE8F84326487D
:1025400001F0A8BC012491F849304A6CD90809036C
:10255000C85903F0070304FA03F320EA0303CB513D
:1025600055F8043C93F84930D908090351F808009C
:1025700003F0070304FA03F320EA030341F80830E9
:1025800055F8043C42F08C0193F8490001F01EFC20
:1025900055F8043C93F84930DA08120352F8091050
:1025A00003F0070304FA03F30B4342F8093055F82C
:1025B000043C93F84930DB080E4A04FA03F3136035
:1025C00055F8043C93F849309C40B3681C43B46010
:1025D000ADE700BFB23A002010040020B03A00205E
:1025E00040000020B13A002020940D403524200006
:1025F000D401002000E100E000940D4010940D4053
:102600000B4B1A689207FCD41B685B065EBFED2279
:10261000084B1A60084B1B6813B1EF22054B1A6078
:10262000064A0120137803F07F031370704700BF40
:102630004C860840388808402C860840A029002095
:10264000044B186800F02200A0F1200358425841C2
:10265000704700BF4C860840024B186800F04000ED
:10266000704700BF4C860840074B93F90020002AB2
:1026700008DBED21054A1160E32111601A7862F050
:102680007F021A7001207047A02900203888084076
:1026900010B50A4B04461B6813F03F0302D0FFF746
:1026A000AFFF0123064904EB84022C3A0A600BB108
:1026B000FFF7DAFF034B1C7010BD00BF48860840CF
:1026C0003C860840FE03002010B50C46002900F0AF
:1026D000AD80192800F2AC80DFE800F00D1E212843
:1026E0002A40495C61767F7AAAAAAA9698599AAA42
:1026F0009C9EA0A2A4A64F4B186810F0FF0001D129
:10270000206008E04C4B1B6813F0030F0CBF012343
:1027100002232360002010BD484B1B78F9E7484B8B
:102720001A68043B1B6843EA0223F2E7454BF7E7CC
:1027300000230B60444B404A1B6803F001030B600D
:102740001268900644BF43F002030B603F4B1B78B6
:10275000002BDFD00B6843F00403DAE700203C4B8A
:1027600008601B78002BD5D001230B60D3E7394BD1
:1027700039491A680023D2B201EBC30000799042B4
:1027800002D851F83330C4E701330E2BF4D16FF087
:102790001703BEE7314B1B685BB2493BB9E7304BCF
:1027A0001B6899060ED1FFF75FFF01222D480368D1
:1027B00059B28031FBD0493B59B20AB1FFF720FF33
:1027C0002160A7E70022F1E7274B93F90030A0E74B
:1027D000264B1B7803F07F039BE7214B1B689A066F
:1027E00010D1FFF741FF012221490B68DB07FCD51F
:1027F000204B1B6803F003032360002A8AD0FFF7F5
:10280000FFFE87E70022EFE70B2382E71A2380E72A
:1028100007237EE703237CE720237AE70C2378E76E
:10282000082376E700206BE77D2372E7022072E73A
:10283000012070E72C86084024860840FE03002013
:10284000CC850840D4850840008608409F29002098
:10285000FF03002040860840B00121005886084050
:102860004886084060860840A12900209E29002053
:10287000648608409C86084008B50B4B1B68990687
:102880000FD1FFF7F1FE012308490A68D207FCD5F2
:10289000074A1168C1F300110BB1FFF7B1FE0846FA
:1028A00008BD0023F0E700BF488608406486084062
:1028B0004C8608400C280DD1082A0DD161B1074B78
:1028C000074A083111F8010D43F8040B9342F9D17E
:1028D000002070470120704702207047A8850840FB
:1028E000C885084070B52E4E0246306810F0400092
:1028F00007D02C4D2868040604D5ED2200202A4B71
:102900001A6070BDC0B20428F7D902388842F4DCDE
:10291000C4B2032C1ED12B6813702B6853702B6824
:1029200093702968214B493949B219702B68204DA1
:1029300018062B70E1D5042089B202F0A7F8297897
:10294000032001F07F0102F0A1F81A4B1B78CBB1F4
:102950002046D6E71119032001390AF0A3F8164BD7
:10296000611E032043EA01110AF0A6F803200AF0D1
:10297000ADF803200AF0C2F803200AF0CBF80028D3
:10298000FAD1CEE733685A06E2D533681B0603D581
:102990000A4802F045FADBE7ED22034B1A60D7E75D
:1029A0004C8608402888084038880840A129002023
:1029B0009E2900209F29002002C0010CE401002074
:1029C0007D2938B505460C4623D8134A13689B0762
:1029D000FCD4124B93F90030002B01DBFFF744FECF
:1029E000EE220F4B02201A60A21C013C43F8102C6F
:1029F00029190AF04FF80B49022041EA04110AF0A4
:102A00005BF802200AF062F802200AF077F8002052
:102A100038BD0120FCE700BF4C860840A0290020FB
:102A20003888084002C001C00C282DE9F0470C4648
:102A300010D1082A40F0828000297FD0404B414AC3
:102A40004C1E53F80419934204F8011FF9D10020D9
:102A5000BDE8F0870D2867D1042A6FD100296DD019
:102A6000394B3A491A68DFF8F88022F007021A60F9
:102A70000A68374F42F008020A60D8F800003A6846
:102A80001D68DFF8E0E0DFF8E0C025F070051D60AC
:102A9000DEF80050DCF80060C0B2120240EA0660C6
:102AA00092B202434FEA05492A4809F47F09D0F857
:102AB00000A042EA09061A685FFA8AF522F00702C6
:102AC00042F001021A600A6842F008020A60D8F86F
:102AD00000203F68196821F0700141F01001196071
:102AE000DEF80010DCF800C0D3B23A0243EA0C630F
:102AF00092B213430A04016802F47F0243EA020817
:102B00005FFA81F904F0F4F9B6EB080165EB090509
:102B1000ED0307460023C8030F4A45EA51410BF075
:102B200055FE3F1A276092E7132805D1042A05D1E4
:102B300021B10A4B0B608AE7012089E7022087E771
:102B4000C4850840A48508401088084004880840CF
:102B5000188808401C8808400048E8015C032100F0
:102B60001488084024880840208808407D28F8B54B
:102B700043D8234B93F90030002B18DB04F0B8F94D
:102B80000446FFF771FDC4F1FF2404F57F04F63419
:102B900004F0AEF9C442FBD401261A4B1B7843B9AA
:102BA000194C2368990609D502210846F8BD00266C
:102BB000F3E7FFF761FE0028F2D1F5E7E9220425EB
:102BC000124F3A6023689A0703D4013D15F0FF05C0
:102BD0000AD123689B070BD4EE2301213B60002E12
:102BE000E3D0FFF70DFDE0E7062000F063FAE9E728
:102BF000216811F00201FBD1F1E70121D5E700BF07
:102C0000A0290020FF0300204C8608403888084097
:102C1000224B1870002836D0214A13681B03FCD5BC
:102C2000204B1A6842F002021A601A6842F0010250
:102C30001A601A685007FCD51A6822F001021A605F
:102C40001A685107FCD41A6842F002021A601A6826
:102C500042F001021A601A685207FCD5124A136842
:102C600023F004031360D2F8A83123F00403C2F860
:102C7000A8314FF400520D4BC3F89020BFF34F8F93
:102C8000BFF36F8F7047084A136843F00403136063
:102C90004FF40052054B1A61704700BF9F29002076
:102CA00004200D40048808408C86084000E100E0C4
:102CB0002DE9F0412E4F3D7815F0010555D1012445
:102CC000F8222C4B4FF07F081C605C609C60A3F5E1
:102CD0009323A3F514731A600922C3F890211522D7
:102CE0001A670B22703303F59B2303F59E731A605A
:102CF000A3F59B23A3F5A6731C604023D5221E4E8B
:102D00003360336843F0200333601C4B1D60C3F80D
:102D100048809A631A4B1878FFF7BAFC336823F09F
:102D20000C033360174BC3F800804FF48042164BFE
:102D30001A61022009F0D6FE1449022009F0B2FE01
:102D4000032009F0CFFE1149032009F0A3FE104B28
:102D50001878FFF75DFF0F48294602F049F8204632
:102D60003B7823433B70BDE8F0810020FBE700BFC8
:102D7000A0290020A8200D4024860840088608408D
:102D8000FE0300209486084000E100E02888084007
:102D90009F290020E401002038B5038804463BB396
:102DA00040F28542934228D1822924D1154B1B78C9
:102DB00073B901F015FE01F0A7FD8021FFF792FD28
:102DC000002805DD80B201F083FD0F4BDB689847DA
:102DD0000E4B1A7852060BD500221A700C4B1D6848
:102DE000FFF70EFCFFF764FFAB0601D0FFF73CFCDA
:102DF00040F285432380012002E00023038003206A
:102E000038BD00BF9F290020D0022100A02900204A
:102E10004886084013B50C460E2800F2A380DFE870
:102E200000F0084A52595C787E91A1A1A1A1A1A10C
:102E30009600012904D1FFF717FC002002B010BD55
:102E400011B9FFF7DDFBF8E78B1E012B00F28C8038
:102E5000002001A9FFF738FC022C019B19D1022B9D
:102E6000EBD05A1E53425341404A1370FFF7C8FB40
:102E70003F4B404A1968116042221A60D3F8C010D3
:102E80003D4A11601822C3F8C020E922C3F8142279
:102E9000D3E7022BD1D1EF22384B1A60354B1A6899
:102EA000334B1A60344B1A68354B1A602F4B1B7822
:102EB000002BC2D0BFE7A1F10B030F2B54D8C8B22F
:102EC000FFF7E6FBB9E72F4BCAB2C4F307241A6039
:102ED0005C60B2E72C4BCAB2F7E731F0070343D18D
:102EE0002A4B11F0010F1A68C1F3800014BF42F0A1
:102EF000010222F001021A601D4B11F0020F1A6844
:102F000014BF42F0200222F020021A60FFF780FE78
:102F100093E731F0010027D11D4B19708EE701F1C5
:102F200018031F2B20D80D231A4A52F833108C4255
:102F300005DC02EBC3031A79174B1A607DE7013BEE
:102F4000F3D27AE7154BCCB249341C6075E70129FE
:102F50000AD8074B1A6811B122F00C02EDE742F0D3
:102F60000C02EAE7012069E7022067E7A2290020B6
:102F700024860840200400202404002038880840CB
:102F8000E4860840C8850840D0850840008608408F
:102F9000FF030020B0012100408608405886084009
:102FA00008B5054B1B7813B9044801F039FF00221E
:102FB000034B1A6008BD00BF9F290020E4010020D8
:102FC00034880840064B07481A68042A1FBF064980
:102FD0000A7842F040020A7000221A6001F020BF15
:102FE0002C880840E4010020A02900202DE9F843A6
:102FF00003F07EFF10490246D1E90045AC46A042ED
:1030000038BF05F1010C6346C1E900230B48D0E944
:103010000089B8EB040169EB05048E1844EB0C073A
:10302000C0E9006700F040FC18B1BDE8F84300F0CB
:10303000BFBBBDE8F88300BF0804002000040020E7
:10304000E0210D4B0D4A5A600D4A82F823100022F0
:1030500007219A6019600B490B6843F001030B606C
:10306000094B1A60042243F80C2C012243F8082C67
:103070000F22DA62704700BF10E000E047E801006D
:1030800000ED00E008200D400C000340034BD3E9A5
:103090000023100A40EA0360704700BF08040020C4
:1030A000034BD3E90023D00B40EA4340704700BFF5
:1030B00000040020054B186053F81C2C1C3B42F008
:1030C00001021A601A68D207FCD470472800034036
:1030D00010B5064C236823F001032360FFF786FF39
:1030E000236843F00103236010BD00BF10E000E03F
:1030F0002DE9F0410CF015FBFFF7A2FF0CF074FC7A
:1031000001F0F6FD0021614801F072FE00F0BCFA0A
:103110000BF074F806F064FB01F0F4FC01F08CFE97
:103120005B4B5C4F1B68DFF8BC8198475A4D7B684E
:103130009847D8F804309847AA79EB79574E584CFD
:1031400003EB022333802368022B69DD554A56497D
:10315000564801F043FD56480CF0FFFA2368022B55
:103160005EDD504A5049514801F038FD514B5248FC
:10317000196801F033FD2368022B51DD494A4A49A1
:103180004A4801F02BFDD8F800104C4801F026FD0C
:103190002368022B44DD434A4349444801F01EFDA5
:1031A0003968474801F01AFD2368022B38DD3D4A93
:1031B0003D493E4801F012FD4AF6CD31414801F04B
:1031C0000DFD2368022B2BDD364A3749374801F0C5
:1031D00005FD04213C4801F001FD2368022B1FDDA1
:1031E000304A3149314801F0F9FC3188374801F063
:1031F000F5FC2368022B13DD2A4A2B492B4801F0EA
:10320000EDFC334801F0EAFC2368022B08DD284678
:1032100001F024F82368022B02DD0A200CF09BFA4F
:103220002C4A2B68002113606B682B48536001F017
:10323000DFFD4FF0FF3009F0DBFD23680546022B70
:1032400013DD184A1849194801F0C8FC234801F059
:10325000C5FC2368022B08DD284600F0EFFF236839
:10326000022B02DD0A200CF076FA01F071FC1C48FA
:103270000BF0B6FD0AF0C8FF01F040FD04460AF06D
:10328000C9FF002CF8D10CF056FAF5E71402002023
:1032900078012100D0022100703A0020341D002066
:1032A000340200205B042100600421006504210039
:1032B0007404210054022100AA042100B904210051
:1032C000C4042100CF042100E90421001E052100CF
:1032D0002B05210054380020380300204005210030
:1032E00040022100C00221002DE9F047099E8946D5
:1032F0003478042C05D00F2C03D0582C01D0AB2CE3
:1033000057D1737896F802A0377B4AEA032AF37AFA
:10331000042047EA032701F0BFFB24224946624309
:10332000294D3FB2AB1825F802A05A880FFA80F851
:1033300001325A80043309F1100251F8040B914212
:1033400043F8040BF9D1242303FB045306F10D02C7
:1033500014331D3652F8041BB24243F8041BF9D152
:1033600024236343EE5AEA1886B150880BF010F814
:10337000814630460BF010F8014648460BF014F930
:1033800012490BF05DF80BF0ABF90646104A1149F3
:10339000114801F023FC24226243CDE90987AB18D0
:1033A00008962146AA5A5B880C48BDE8F04701F010
:1033B00015BC0B49064A084801F010FC2146BDE83F
:1033C000F047084801F00ABCF41A00200000C84287
:1033D00064052100600421006504210070052100BE
:1033E000B6052100BA0521002DE9F04F04880746F3
:1033F0008BB0002C5BD04B2C40F08680444BDB68BC
:10340000002B73D1434B02A85B699847002873D007
:10341000414801F0E3FB02A80AF0E0FE3F48DFF874
:1034200034914FF00008CA460CF097F93C4B06ADBA
:103430000FCB85E80F00DFF820B1242655F8041BD8
:103440004E4309EB06046388002B27D0584601F051
:10345000C5FB301D48440AF0C1FE324801F0BEFBF6
:10346000A38A002B4AD1E38A002B47D1238B002B60
:1034700044D1638B002B41D1A38B002B3ED1E38B36
:10348000002B3BD1238C002B38D1638C002B35D102
:10349000254801F0A3FB25480CF05FF908F101086D
:1034A000B8F1040FC9D11A480BF003FD1EE0204A01
:1034B0002049214801F092FB20480CF04EF9154BB1
:1034C000DB6898471E4806F07FF81E4B1B6998473B
:1034D0001D4B2246009340F2D2431C48194605F08A
:1034E000C7FA4FF420710A480BF0DAFC4B23012095
:1034F0003B800BB0BDE8F08F154890E706F1140053
:1035000050440AF06BFEC6E7002303800320F0E777
:103510002804002054022100ED052100FB052100B4
:10352000300221003C0621001F072100EB0821008A
:10353000640521006004210065042100CF052100FD
:10354000A8022100D0022100E93220003804002026
:103550000D062100F41A00202F062100024B1868E6
:10356000B0FA80F04009704700B708404FF40042BD
:10357000084B10B5C3F89021C3F89020BFF34F8FCC
:10358000BFF36F8F044C206818B101F049FC002391
:10359000236010BD00E100E05C040020064A1368CF
:1035A00043F002031360536843F0020353609368CF
:1035B00043F002039360704748200D4007B50C4864
:1035C00000F0F2FEFFF7EAFF0A4B1A6842F002022F
:1035D0001A6000220192019A0F2A06DD1A6822F071
:1035E00002021A6003B05DF804FB019A0132F1E7B0
:1035F0005D35200054200D40064A136823F0020375
:103600001360536823F002035360936823F00203AE
:103610009360704748200D40F8B503880546BBB15C
:10362000452B27D188291BD1144B1C68B4B1231D0D
:103630009A421DD1214611480BF078FF104E626965
:1036400037683260A2690AB1E0699047376005E0E7
:103650000A4B1C6834B901220A4B1A7045232B808F
:1036600001200AE0A168201D0BF01AFC2468F1E794
:103670002468DBE7002303800320F8BD60040020FA
:1036800060320020A32900200021024B024819606B
:1036900001F0AEBB600400200402002070B50446B7
:1036A000E3610B4B049D1B78C4E905526BB1094DD6
:1036B000094B2E68201D2B600BF0F2FB2E6021467B
:1036C000BDE8704005480BF044BFA160F7E700BFBC
:1036D000A3290020603200200402002060040020A2
:1036E00070B5094B04461B783BB1084D084B2E685A
:1036F00004302B600BF0DDFB2E602146BDE87040EE
:1037000004480BF026BF00BFA32900206032002030
:10371000040200206004002010B5084B04461B780A
:1037200043B1043000F0C8F82146BDE81040044819
:103730000BF0FCBEC0E90333F6E700BFA32900206D
:103740006004002008B5084B01461B7823B10069CE
:10375000B0FA80F0400908BD04480BF00EFF80F07D
:103760000100C0B2F7E700BFA329002060040020D9
:1037700010B50D4C236813B90C4A136010BDFFF748
:1037800085FC2268D2E900310B441B1A92681AB9F1
:103790001844064B1860F1E7D2E900142144091AD5
:1037A0008B4228BF0B46F1E7680400206404002028
:1037B000014801F035BB00BF140200202DE9F84399
:1037C0000388054653B1592B48D1872921D10020C0
:1037D00024490B6863B918B10B6001E0214A1360FA
:1037E000592301202B80BDE8F88301203346F1E7FF
:1037F000D3E902649442F8D000B10B6019460B463D
:1038000089680029ECD0C8689042F8D1896899602D
:10381000F4E78229E4D1134F4FF00009B84600269F
:103820003C68002CDCD020460CF0AAF998B1224666
:103830008821E06801F0B4FA58B9A368E0602EB1BD
:10384000B360C4F80890FFF793FFE8E7C8F80030CA
:10385000F7E7FFF7ADFF2646A468E2E70023038001
:103860000320C0E76804002010B50446FFF7A0FF5E
:10387000E3680B4A0BB1136833B90A4B1B68E3606A
:1038800013681460A36004E0A34206D1054A1268DD
:10389000DA60BDE81040FFF76BBF9B68ECE700BF44
:1038A0006804002060320020024B1868003818BFFE
:1038B000012070476804002010B50B4A04461368C5
:1038C000834208D183681360FFF752FF0023C4E9E5
:1038D000023310BD1346002BF8D09A68A242F9D1EA
:1038E000A2689A60F0E700BF68040020014B1888C6
:1038F000704700BFFC030020014B1880704700BFD9
:10390000FC03002013B500210446019170B101AA07
:1039100010300BF0E0FA019B43B1074AA38B1288E9
:103920009A4206D04FF6FF72934202D0002002B0B6
:1039300010BD0120FBE700BFFC030020F8B50E46D8
:103940001546044608B90020F8BD407E40B1022863
:1039500004F108010CBF022708270BF057FB28B120
:1039600046B10F4930460BF0CCFD03E0082FEAD1F9
:10397000002EF7D1E07D38B10228214614BF082679
:1039800002260BF043FB28B145B1054928460BF050
:10399000B8FD03E0082ED6D1002DF7D10120D3E7E2
:1039A000540321002DE9F0430129064688461446B8
:1039B00087B003DC002007B0BDE8F08303A90BF05B
:1039C000BFFB03AB03CB1B88206123839DF8113021
:1039D0006161002B47D0B71C02AA01A903A80BF014
:1039E0007AFA9DF81350002D4ED0029B2BB17A78B5
:1039F00017F8023B03EB02239BB2022DA38336D1BF
:103A00003D46204632490BF07CFD7B78237015F84B
:103A1000023B63709DF81590B9F1000F4ED0019BE9
:103A2000002B38D02F466A7817F8023B03EB0223AD
:103A3000029A9BB2E38302B9A383B9F1020F2ED19C
:103A40003D46234904F108000BF05BFD7B782372AF
:103A500015F8023B6372A81BA8EB00038045C4E97C
:103A60000E53A7DBA7E7B378F71CA376B4E7032DC3
:103A70000FD107F108052B46621E13F8011D9F4266
:103A800002F8011FF9D1C5E7204611490BF039FDB5
:103A9000A5833D46BEE7A38B2F46E383CDE7B9F16F
:103AA000030F13D107F108052B4604F1080213F8A0
:103AB000011DBB4202F8011BF9D1CCE7044904F116
:103AC00008000BF01EFDA4F81E90C4E73D46C2E7B7
:103AD000540321002DE9F0470646144612B94FF071
:103AE000FF3073E04FF0000C0346E1466546DFF817
:103AF00048A282F803C021B9981BBCF1000F65D120
:103B000045E00129EBD99846587818F8022B8F1E0A
:103B100042EA0022BCF1010FFFB24FEAD23038D0A6
:103B2000BCF1020F54D0BCF1000F40F0038100281B
:103B3000D5D102F07F05C2F3C7127E2A1CD07F2A9E
:103B400021D0AF42CBD31E2AC9D1022DC7D1DA78FA
:103B50009B7843EA0223D90BA17019051AB246BF1C
:103B600043EA0A031BB2C2F30B0323807F1B844684
:103B700008EB0503F9B2BEE7002DB0D1A8EB0603B0
:103B8000E3700120F2E7002DA9D1A8EB0600E07058
:103B90001CE00028A3D0C2F30A05C2F3C322052A01
:103BA00007D00F2A0ED0012A99D1A946022000255C
:103BB000DCE79A78C92AD9D1033323656B1EA4F8B0
:103BC0005430D3E7002D8AD1A8EB0600BDE8F0877A
:103BD000B9B2002840F08980D5B28D42C2F30622E6
:103BE0003FF67DAF1B2A1AD01C2A66D01A2A7FF412
:103BF00076AF062D7FF473AF9A78A260D97842EA47
:103C00000122A260197942EA0142A260597942EA8E
:103C10000162A2609A792273DB7923742CE0002D73
:103C20003FF45DAF9A783AB3012A7FF458AF9879A0
:103C300004283FF754AF421C02EB820295427FF406
:103C40004EAF012284F82A20DA78073384F82B203B
:103C500013F8021C13F8032C42EA01220021A2856A
:103C600013F8012C84F82E2004F13002884203F16D
:103C7000050302F106020ADCAB1CA9EB0309B9F14A
:103C8000000FFFF62CAF3FF47CAF02206EE713F875
:103C900004EC13F805CC01314CEA0E2C22F806CCCA
:103CA00013F802EC13F803CC4CEA0E2C22F804CCE7
:103CB00013F801CC02F802CCD8E7012D02D0192D5F
:103CC0007FF40DAF9A78192D6274D5D104F11201E9
:103CD00003F1180093F804C0DA78023342EA0C22A8
:103CE000834221F8022BF5D1C6E7C2F30A058D42C3
:103CF000C2F3C3223FF6F3AE092A7FF4F0AE002DE3
:103D00003FF4EDAE9A78012D84F84820B4D0D97AEA
:103D10009A7A42EA0122042AA4F84A20ACD802F195
:103D20000C018D42A8D103F10C0104F14C000AF002
:103D3000F7FEA1E7604619E700F0FFFF30B591B04C
:103D400005464FF6FF74FFF7D1FDA04204D14FF0B6
:103D5000FF34204611B030BD4022002168460AF0F1
:103D6000BFFF00F0AFFE6A46014617480BF055FB57
:103D700000F0A8FEF8B1ADF800400C2000F09AFE6B
:103D8000014602A80BF0BDFB00F0BEFD0E9000F056
:103D9000A9FD0F9068460BF048F90446002DD8D0D5
:103DA00000F0E4FD0028D2D000F098FD01466846FE
:103DB0000BF083F9CDE70D2000F07CFE014668464C
:103DC0000BF09FFBD9E700BF994A20002DE9F8438B
:103DD0000F46012300F0070103FA01F64FEAD0096C
:103DE00017F00C036FEA0605DFF8A4804FEA0934E8
:103DF00017D154F808302B4044F8083017F003026C
:103E000030D1484600F0C4F83A0654F808302FD4B0
:103E10002B4044F808301B4AA3581D40A550BDE86C
:103E2000F883042B0BD1184AA3582B40A35004321B
:103E3000A3582B40A3500432A35833430CE0082B63
:103E40000CD1114AA3582B40A3500432A3582B4045
:103E5000A3500432A3582B40A350CFE70C2BCDD155
:103E6000094AE5E7022ACCD0012ACDD10422C8E7CD
:103E7000334344F808300120044B00FA09F018607D
:103E8000C9E700BF20940D4004940D4000E100E01C
:103E900010940D40014601480BF05BBB6C04002000
:103EA00038B50546054B1C6804B938BDA0682840E4
:103EB00002D0636803B198472468F5E76C040020DA
:103EC0000022014B1A6070476C0400202DE9F0417C
:103ED0000546DFF83C8000F0F3F90B4B2E03F75852
:103EE00056F80840ED00EC4047EA0400C0B2A84094
:103EF000FFF7D6FFE4B2054BFFB2AC40F75046F8EF
:103F00000840BDE8F08100BF18940D401C940D409E
:103F100018970D40134B1B783BB101F52011124B44
:103F200027310138994217D17047104A1278122A66
:103F3000F3D10F4A12784B2AEFD108448B4200DBB1
:103F4000704703F52012032BD4BF2C322432127891
:103F5000013300F8012DF1E711F8012900F8012FD4
:103F6000E0E700BF2B002800270028002A002800D7
:103F700029002800034B044A1A60044B803A1A6057
:103F8000704700BF7004002080400D407404002082
:103F9000034B01EBC0011B6843F82120704700BFB1
:103FA00070040020034B01EBC0011B6843F8212083
:103FB000704700BF740400200021F0B50125FF26E2
:103FC0000F46104C40FA01F3DB0711D5227894F824
:103FD00001C0D3081B0303F1804302F0070203F57D
:103FE000592305FA02F2BCF1000F07D043F8227002
:103FF0000131042904F10204E4D1F0BD43F8226048
:10400000F6E700BF72062100F0B500210126FF2768
:104010000E4C40FA01F3DB070ED522786578D30801
:104020001B0303F1804302F0070203F5592306FA4C
:1040300002F23DB143F822700131042904F1020477
:10404000E7D1F0BD43F82250F6E700BF7206210029
:10405000F0B4002101260D4F0D4D0E4C17F8113014
:104060000131DA081203505903F0070306FA03F38B
:1040700020EA030050511059042943EA0003135168
:10408000ECD1F0BC0F20FFF7BFBF00BF72062100CC
:1040900020940D4000940D4010B50948FFF720FB17
:1040A000084800F0E3FA0146064C01B910BD0B7A4E
:1040B00020465B080B7200F0B3FA0146F5E700BF3B
:1040C0003C32002024020020014601480BF0E3BAF4
:1040D00024020020F8B531F0020307460E461546CB
:1040E00001D006292DD139461B480BF0D4FA0446DD
:1040F00028BB36BB334608223946174800F004FB7C
:104100000446F0B147F6FF73C380FEF7BFFF237A82
:1041100020602B44102BA8BF10232046022E2372B0
:1041200008BF0C350BF0DBF9A18800284FEAC51554
:1041300014BF0A221922ADB221B9A58001E0062ED2
:10414000E3D1F8BD5543C2F1640301FB0355642379
:10415000B5FBF3F5F1E700BF2402002038B50546B2
:10416000042000F099FC294604B21C480BF093FA95
:10417000034648B908222946184800F0C5FA034604
:1041800040B347F6FF72C28047F6FF71B3F90620CD
:104190008A4208D00A2044435A2000FB0244642289
:1041A00094FBF2F424B299882246DC8091B947F658
:1041B000FF718C420FD05A3212B222EAE2721E2AEA
:1041C000A8BF1E221E21D201B2FBF1F202F58072BD
:1041D00092B29A8038BD4FF48072FAE72402002030
:1041E00038B5084800F042FA0446064D04B938BD17
:1041F0002146284600F0E0FA2146284600F010FA51
:104200000446F3E72402002007B50021074800F028
:10421000EFF9074B4FF4E1311B68064A009306485B
:104220000023FFF73BFA03B05DF804FB24020020F3
:1042300060320020994020003C32002000B58BB055
:1042400002462821684609F04DFF6946024800F001
:10425000C5FC0BB05DF804FB7A06210070B505467D
:1042600088B90A48BDE8704000F0B8BCE30702D442
:104270002E200BF070FA295D3046013400F0AEFCC0
:10428000082CF3D170BD0024014EF4E77D06210017
:104290008C062100084B19461A68D002FCD4074B43
:1042A0001A6822F480321A600A68D203FCD41A68B1
:1042B00042F400321A60704704200D4000200D4087
:1042C00010B50A4C236898070ED0094B1A46196896
:1042D0004901FCD413685B01FCD5FEF7F9FEFFF73A
:1042E000D9FF23680023236010BD00BF58200D4074
:1042F00004200D4038B5264B1C6814F03F0414D13F
:10430000244D55F8043B23B1984770B10134052C76
:10431000F7D1214D2B7843B102F0E4FD044602F0C1
:10432000E7FD201A092800D90CB930BF27E01B4B44
:104330001A6822F400321A60194A11461068C00245
:10434000FCD41A6842F480321A600B68DB03FCD597
:1043500002F0CEFD241A092C03D8BDE83840FFF73F
:1043600099BF632C0F4C0BD92B78022B08D12360FB
:1043700000F00AFD30B1FFF78DFF0023236038BD48
:104380000123F4E702F0AEFD0028F4D02368CCE767
:104390004886084038050020A429002000200D4050
:1043A00004200D4058200D40074A10B50023144644
:1043B00052F8041B814202D011B944F8230010BD09
:1043C0000133052BF4D1FAE7380500200022054B14
:1043D0001A60054A136943F0040313610122034B79
:1043E0001A70704758200D4000ED00E0A42900200D
:1043F00008B500F091FD014B187008BDA5290020FB
:10440000034B062019784A1C1A7000F03FBB00BF0E
:10441000A5290020F8B5FEF739FE114D0746002406
:104420002E460C2000F046FB29460BF06FF878B1C1
:10443000062000F031FB06EB0414237B83420CD1F1
:10444000A068381AB0F5206F8CBF00200120F8BD9D
:104450000134102C05F11005E3D10020F7E700BF6F
:104460004C050020F8B5184D00242E460C2000F015
:1044700021FB29460BF04AF8013418B9102C05F13C
:104480001005F3D1651E06EB0413A3F110077DB9E7
:10449000062000F001FB3073FEF7F8FDB0600C2041
:1044A00000F008FBBDE8F840014607480BF029B8CA
:1044B0003C46013D203B224618685968083303C238
:1044C000BB421446F7D1E0E74C05002030B1054B64
:1044D0009B68C01A044B8010584370474FF0FF3060
:1044E000704700BF38020020ABAAAAAA38B50B4D0E
:1044F0000B4B002818BF05461C6814B94FF0FF305D
:1045000038BD2846211D0BF001F820B12046BDE83A
:104510003840FFF7DBBF2468EFE700BF54032100FA
:104520006C06002008B502460BF08EF8431C17BF3E
:10453000044B0020185C13681CBF184100F00100F8
:1045400008BD00BFC62900202DE9F84304460E46E9
:104550000027DFF8788058F8042BA2B1D2F8089031
:10456000B9F1000F0FD02046FFF7B0FF014610460B
:104570000BF060F8014605461046FFF7D3FF01280F
:1045800001D12846C8470137082FE4D12046FFF75C
:104590009DFF0022094B1A542046FFF797FF084B56
:1045A00021461A5407480AF0C1FF2EB12146BDE842
:1045B000F84305480BF00CB8BDE8F883C629002085
:1045C000A62900206C060020380200204C0600209E
:1045D00050B10368072B06D8044A52F823301B1A3F
:1045E0005842584170470020704700BF4C060020D9
:1045F00010B50446FFF7ECFF10B1A160012010BD1B
:10460000054A1368072BFAD8581C1060034A236028
:10461000A16042F82340F1E7300700204C0600205B
:10462000F8B505460C460C270F4B9E6821462846D8
:104630000BF00AF8431C14D007FB00F3F01800D06D
:10464000F058FFF743FF014628460AF0F3FF0446FF
:1046500028B101462846FFF765FF0028E6D020462E
:10466000F8BD0020EDE700BF3802002038B50B4B45
:1046700005461868FFF72AFF014628460AF0DAFFC8
:10468000044601462846FFF74DFF28B92146284633
:10469000BDE83840FFF7C4BF204638BD6C06002097
:1046A000F8B50D4617460AF0F6FF044620B100247F
:1046B000012007B13C60F8BD2846FFF717FF013025
:1046C000F5D10E480AF0A8FF0028F0D10C4B0D4E92
:1046D0001D681DB9201E18BF0120EAE72846FFF714
:1046E000F5FE335C13B9291D14B90C462D68F0E7AB
:1046F00020460BF018F90446F8E700BF3802002006
:104700006C060020A62900202DE9F3410D4607463E
:1047100020B90024204602B0BDE8F081224B01AA56
:10472000002908BF1D462946FFF7BAFF0028F0D030
:104730002846FFF7DBFE421C064625D11B4EDDF85E
:10474000048030460AF030FF044688B9B8F1000F03
:10475000DFD04046FFF7CAFE431CDAD00C23B46812
:1047600003FB0044002CD4D000212046FFF7ECFED0
:1047700021460F480AF0EDFE2046FFF7A7FE294626
:104780000646201D0AF0BDFE314638460AF052FFAB
:1047900004467A6800210AF0A3FA0123224639462A
:1047A00004480AF05CFFB5E75403210038020020FA
:1047B0006C060020C629002070B50A4604460D4646
:1047C0000023014605480AF04AFF064600232A4610
:1047D000214603480AF043FF304670BDC629002039
:1047E000A62900200A460123014601480AF037BFE6
:1047F000A62900200A460023014601480AF02FBFDF
:10480000A629002008B50AF01FFF431C07D00C2280
:10481000044B9B6802FB003000B1043008BD00204F
:10482000FCE700BF3802002070B5054688B90A4889
:10483000BDE8704000F0D2B9E30702D42E200AF0A0
:104840008AFF295D3046013400F0C8F9082CF3D105
:1048500070BD0024014EF4E77D0621008C06210086
:1048600070B505460E460B4B1C680CB9204609E096
:10487000012D08D1A3680BB92468F6E730469847A4
:104880000028F9D070BD002DF6D16368002BF3D05D
:104890009847F5E734070020014A024B9A607047B9
:1048A0000020200000ED00E010B507490B8883428E
:1048B00008DB064C80B222880244181A08800120C6
:1048C000228010BD0020FCE7361D0020381D00208E
:1048D000014B1880704700BF361D0020004870470C
:1048E00038070020014B1888704700BF361D002094
:1048F000034A044B10781B781844C0B2704700BFBD
:10490000D6290020381D002008B5FFF7F1FF014B24
:10491000184408BD38070020F8B50C4B04461E7833
:104920000B4B1F88F519802D0DDC324609490AF022
:10493000F7F8FFF7E9FF344401463A4620460AF00B
:10494000EFF82846F8BD0025FBE700BFD629002078
:10495000361D00203807002008B5FFF7C9FF024BBD
:104960001B88184480B208BD361D002010B50146D2
:10497000FFF7F2FF4318802B12DC431E094A1BB2DB
:104980001A44481C002B05DA074B18780144012013
:10499000197010BD12F80149013B14541BB2F1E724
:1049A0000020F6E738070020D629002038B5094D49
:1049B000094C1822002109480AF092F9294620469C
:1049C0000AF09FFD294604F10800BDE838400AF0CE
:1049D00098BD00BF54032100783A0020883A002097
:1049E0000023044A1380044A1380044A1370FFF71B
:1049F000DDBF00BF381D0020361D0020D629002055
:104A000038B50C460546FFF7EBFF802C28BF802405
:104A10002946224603480AF083F8034B20461C80AF
:104A200038BD00BF38070020361D002010B5094BE7
:104A300003F1180253F8044B934240F8044BF9D1A8
:104A4000054B03F1100253F8040B934241F8040B99
:104A5000F9D110BD883A0020783A002010B5094BF2
:104A600000F1180250F8044B904243F8044BF9D17E
:104A7000054B01F1100251F8040B914243F8040B6D
:104A8000F9D110BD883A0020783A0020014B23F874
:104A900010107047883A0020014B33F8100070471F
:104AA000883A0020024B0C3803EBC0000AF029BD05
:104AB000783A0020024B0C3803EBC000704700BF6F
:104AC000783A0020014902480AF020BD5403210031
:104AD000803A00204FF48032084B10B5C3F8902183
:104AE000C3F89020BFF34F8FBFF36F8F044C206843
:104AF00018B100F095F90023236010BD00E100E03B
:104B0000B807002008B5002007F0C8FE012007F014
:104B1000C5FE0D49002007F08DFF02F03DFB00208F
:104B200000F00CFA07F09CFFFEF748FDFEF764FD6D
:104B300008210648FFF7EEF9FDF7E0FC62B6BDE894
:104B4000084002200AF0C1BD51712000703A0020D7
:104B500073B51A4B1B68022B08DD1949194A1A480C
:104B600000F03CF819491A4800F038F86846082166
:104B7000FFF7D0F9174E9DF806309DF80750F46AFC
:104B800045EA03254AF6CD310220A04729460320F5
:104B9000A0471A210120A0470822736B69460C2008
:104BA000984704F015FEFDF771FB00210A4800F05C
:104BB0001FF904200AF089FD02B070BD3402002004
:104BC0006004210091062100650421009A0621005D
:104BD000B206210078012100CC0200200FB407B5F5
:104BE00004AA52F8041B0448019204F0A5FE03B085
:104BF0005DF804EB04B070474402002038B58368C8
:104C000004460D469BB10A4804600220A07304F1DB
:104C10000C0098470238012801D9832D05D121467F
:104C20002046BDE8384000F005B80123A37338BD25
:104C300060320020F8B504461A4D2B68A34203D019
:104C400003B9F8BD1B68F9E7002CFAD0164EA37B18
:104C500037684BB1A3683BB18C4205D00022832159
:104C6000346004F10C0098472B68A34206D12368F6
:104C70002B60A37B53B93760E3E71346002BF8D0D2
:104C80001A68A242F9D122681A60F2E70023A373DE
:104C90002D68002DEFD02246872128460AF055FDC9
:104CA000F6E700BF5C32002060320020002238B5F9
:104CB0000125084B1A70084B1C6804B938BDE37B0A
:104CC0002BB1002282212046E581FFF797FF24685F
:104CD000F3E700BFDA2900205C320020034B18788C
:104CE000FF2816BF421C80201A707047D829002068
:104CF0008A22014B1A707047D82900202DE9F04113
:104D00001C4D2B780BB1FFF7D1FF1B4C2678AEB1B1
:104D10000C221A49DFF86CC00B78013E5A430CEBA9
:104D20000200077A0133406803F01F035CF8028039
:104D30000B70267098B9124B1E682EB9287823780C
:104D40001844C0B2BDE8F0812B780BB1FFF7AEFF7D
:104D50003046424639460AF0F8FC3668EDE7812FC6
:104D600008BF01234246394608BF83730AF0EDFCB1
:104D7000E4E700BFDA290020D9290020D729002044
:104D80005C320020BC070020034B1878034B1B78D3
:104D90001844C0B2704700BFDA290020D92900208A
:104DA000F0B50B4E3378202B0FD00C25094C0A4F51
:104DB00024781C4404F01F046C433D1968600020F3
:104DC000013329723A513370F0BD0120FCE700BF76
:104DD000D9290020D7290020BC07002038B5034C72
:104DE00025680AF0B2FC256038BD00BF60320020A3
:104DF00010B40A4C0A4621680B4683420CD04BB9CA
:104E000050B1016001212060817310BC8121838138
:104E1000FFF7E4BF1B68F0E710BC70475C3200206E
:104E200038B1837B013B012B9FBF0123014AC37330
:104E300013707047DA29002008B504480AF0A4FB73
:104E4000BDE8084002480AF09FBB00BF580200209E
:104E50004C02002001480AF0DFBB00BF4C020020DA
:104E600038B50E480AF0A0FB054650B10C480AF0D0
:104E70009BFB0446286030B9294608480AF0A8FB85
:104E80002546284638BDFFF747FD04F19A01A4F8EE
:104E9000800004F18200FFF7C9FDF2E74C02002018
:104EA0005802002010B50146044607480AF0A6FB48
:104EB00048B1216805480AF08BFB2146BDE8104047
:104EC00001480AF085BB10BD4C02002058020020AA
:104ED00010B50146044609480AF090FB68B1246801
:104EE000B4F880102046FFF78BFD04F19A0104F11D
:104EF0008200BDE81040FFF7B1BD10BD4C0200209C
:104F000010B50146044603480AF078FB00B120685A
:104F100010BD00BF4C020020064A136843F0040392
:104F20001360054B186804331B6840EA032080B205
:104F3000704700BF00700D4014700D4010B5174A47
:104F4000136823F00C0313600122154B1A601A68D2
:104F5000012AFCD10822134B13491A60E32203F5FE
:104F600005731A601A460B68DB07FCD50F4C10213D
:104F700000232068013900F0010043EA00034FEAF2
:104F800043039BB2F5D1002BF1D00949180A03F075
:104F9000FE0308600B60EF23136010BD00700D402E
:104FA000A8200D4024860840648608409C8608405E
:104FB00014700D4070B5164E054633780C46C3B9D3
:104FC00007F0AEFE134BADB91A4600F1100150F8D0
:104FD000045B884242F8045BF9D184B90E490D485C
:104FE0000AF0CEFF012200210A4807F041FF012309
:104FF000337070BD2A681A606A685A60EDE721460E
:1050000051F8082F9A604A68044B5A60EAE700BFDB
:10501000FB290020DA27002054380020E227002056
:1050200013B5002100240846FFF7C4FF2246154BA4
:1050300093F8201059B193F82110012907D1197C58
:10504000FE2902D1597C802901D003F110040132DC
:10505000032A03F11C03EBD1204607F0B3FE04B989
:1050600068B101F0C1FE40230246214600200093B2
:1050700000F012FB00F05CF9002002B010BD4FF010
:10508000FF30FAE7DC360020044B187B28B1B3F878
:105090004E00DB8AC31A58425841704764320020E0
:1050A0002DE9F84390461C4CDFF8709007460E46F9
:1050B0004FF4B072002120461D4609F011FEB9F8E8
:1050C0002030434502D00020BDE8F88328469DF8F3
:1050D0002420089901F0D2FE0028F4D0F023E373D5
:1050E000012323734FF0FF33E364A4F850304FF2F1
:1050F000F003A4F8583033466773C4F8089006F1FB
:1051000010051C34224618685968083303C2AB42A4
:105110001446F7D10120D7E7643200209402002022
:1051200013B5437D0446012B02D9002002B010BD07
:1051300090F851300146019390F850300093028A64
:1051400000F13C03007EFFF7ABFF0028EDD0144BCD
:10515000627D618B9A73626D19821A60226A5A614C
:10516000227F9A74627F1A76E28B5A83002283F838
:105170005C20A17D83F85410217D83F85310E17DDC
:1051800083F8552083F852109B681B6898470548A0
:1051900001F038FC01F018FD01F050FD0120C5E7D9
:1051A00064320020B706210030B50A4A137B7BB178
:1051B00068B1034602F11C052C322C4603CC944204
:1051C00018605960254603F10803F6D1012030BD6F
:1051D0001846FCE76432002010B5FFF755FF104C6D
:1051E00060B994F858200020531CDBB2120658BF57
:1051F00003F07F0384F8583001F0AAF8FEF7F0FFBF
:1052000001F06AFA08F088FB01F040FD94F84130A3
:105210005B0602D5034801F01DFE0023237310BD79
:1052200064320020903200200322024B83F85C207D
:1052300001F04EBD6432002008B50F4B1A7BD2B18D
:105240009A6C511C17D0824208D800229A6403221B
:1052500083F85C20BDE8084001F03ABD121AB2F5AF
:10526000967F9A6407D2586C28B10AF06BFBBDE8B0
:10527000084000F065BF08BD6432002008B5074B48
:105280000146187B48B193F8402003F11C00D20876
:1052900009F018FCB0FA80F0400908BD6432002023
:1052A00010B50A4C237B83B1FFF7EEFE08B984F8F2
:1052B0005C00A3681B68984701F00EFA044801F0EF
:1052C000A1FBBDE8104001F003BD10BD6432002019
:1052D000BC06210008B5FFF7D7FE88B1094B0A4884
:1052E00093F852104A1CD2B2090658BF02F07F024E
:1052F00083F85220F022DA73BDE80840FFF7D0BFF0
:1053000008BD00BF64320020C9062100074B9A7B0C
:10531000187B1AB9003818BF0120704728B193F8DC
:105320005C00012894BF00200120704764320020F7
:105330002DE9F041454C237B002B00F0848004F1E3
:105340006400B4F84E50FEF7E7F994F85C30032B94
:1053500012D1002001F098F94FF6FF739D42A4F896
:105360004E3004D03A4801F04DFB01F067FCA368D1
:10537000BDE8F041DB691847FFF786FE07460028C5
:10538000F5D1666C01F0CEF901F07EF9606C01F0A8
:1053900025F9DFF8C880A4F84E00D8F80000FFF720
:1053A00065F9054688BBB4F84E201EB1B4F84C3000
:1053B000934201D9A4F84C204FF6FF71B4F8503055
:1053C0008B420DD08A420BD0D31A002BB8BF5B4260
:1053D000B3F5007F04DD1F48A4F8502001F012FB54
:1053E00094F85B30002BC2D0636C13B33EB9012339
:1053F000194884F85C3001F005FB01F00DFC01F068
:105400002BFB002384F85B30B1E7284601F0E6F877
:10541000B4F84E3083420AD92B6813B9FDF736FE33
:1054200028602946D8F80000FFF7FAF8B9E72F609E
:10543000F7E7074884F85C3001F0E4FA01F088FAF5
:1054400001F0FCFBDDE7BDE8F08100BF6432002025
:10545000D7062100E5062100FD062100B802002044
:105460002DE9F041544C0746237B0D46F3B1627B96
:105470002B7E9A4220D110222946504809F022FB67
:10548000D0B96A8AE38A9A420CD3E97D94F8520033
:105490000AF090FA6B8AB8B1E28A934202D1484886
:1054A00001F0B0FABDE8F041FFF742BFFFF7ECFDB5
:1054B00020B1237B002BDAD1BDE8F0812846FFF72D
:1054C0002FFE0028F5D1F7E74FF6FF72934218BF81
:1054D00094F8573094F852101CBF013384F85730B9
:1054E000E87D0AF067FA50B1B4F84E20E38A9A4298
:1054F0004ED1EB7D334884F85230FFF7EBFE2A465D
:10550000012138460AF0C2F90028CBD0384601F014
:10551000FBF8064600284CD090F80680384601F08B
:10552000F3F868B938460AF0F1FC01460028B9D012
:1055300025482B4601220068FFF7E6F80028B1D085
:105540006B8A83806B7E8371A36C1BB13EB1636CED
:105550009E4204D14FF4F073628B5343A364A37B48
:10556000002B9FD0002E9DD0636C9E429AD1414665
:10557000687E0AF01FFA002894D0E27B531CDBB24D
:10558000120658BF03F07F03E37301F065FA89E761
:10559000FFF77AFD06460028B1D101F077FB3046CF
:1055A00001F072F82846FFF7BBFD0848FFF778FEC8
:1055B000A5E74FF0F008B1E7643200208032002008
:1055C0000807210024072100B8020020C906210095
:1055D00010B50A46044621B1BDE81040064801F066
:1055E00011BA03210AF052F920B12046BDE810405B
:1055F00000F0C2BD10BD00BF3D07210038B5054613
:1056000091F823000C4668B90A4629460AF0E6FCE0
:1056100094F92530002B14DA2846218CBDE8384057
:1056200001F032BAFF2816BF064B4FF0FF335B8BF9
:105630000A4618BF43432946002008F0D9F800283D
:10564000E6D138BD6432002070B5114C0D4694F897
:10565000591006460AF0AEF908B184F8596094F87A
:105660005830B34213D194F85C306DB2012B07D19E
:10567000002D05DB0223074884F85C3001F0C2F9F5
:1056800001F024FA002DBCBF032384F85C3070BD08
:10569000643200204B0721002DE9F347234C994643
:1056A000237B06460F4690469DF828A0002B3BD052
:1056B000102204F11C0009F005FA98BB94F852304E
:1056C0005D1C1B06EDB201D405F07F05FFF784FDDC
:1056D0004346012239463046CDE9009AFFF7E0FC07
:1056E000134A012362611E22A373227640F6084307
:1056F0003C222382628300238022A374A4F84E20DC
:1057000084F853304FF0FF32A4F854300223094894
:1057100084F85250A26484F85C3002B0BDE8F047CF
:1057200001F070B9F025D1E7F025D1E7643200200F
:1057300000048000550721004FF4B0720021014899
:1057400009F0CEBA6432002010B5124B9A79D2B962
:1057500093F82A10632916D193F82900A8B993F871
:105760002B20042A10D10C4A117B81B1547B93F871
:105770002D10A14208D1B2F84E0083F82D10020A74
:1057800042EA0022DA85012010BD1046FCE70846F7
:10579000FAE700BF5C3800206432002070B51C4B73
:1057A00004462B2219881B480AF0A4FC06461A4816
:1057B000FFF764FD08B9002070BD1849002007F00C
:1057C000DFFF15490546002007F0DAFF16B1B37870
:1057D000032B06D00028EED0002DECD04369AB425D
:1057E000E9D122460C4D05F110062B4603CBB342FE
:1057F000106051601D4602F10802F6D148F2FE0326
:105800002380002301206380A380E380D4E700BFCE
:105810004C3800205C380020743800208032002092
:105820002DE9F04F704B2B22198870488FB00AF089
:1058300061FC044608B9002084E08378032BFAD188
:1058400090F803A0BAF1000F7BD0057942792B09BB
:105850000293C3F110030193437805F00F05013360
:10586000DB00DBB2A3EB12132B44019A183B93FB32
:10587000F2F30133DBB29A450393DCD85C4E0DF1B1
:10588000280C96E80F008CE80F002379E1781A09BC
:1058900003F00F03C2F1100B012908BF1A464FF0A5
:1058A0000009607867790130C000C0B2A0EB171022
:1058B0001844183890FBFBF00CEB02030593C2F17F
:1058C000100306934B460130C0B2471AFFB20BFBE0
:1058D00007F80490A6F11800261A1036B21A08F13B
:1058E000080807900892049ABA422ED8029A039B9D
:1058F000BAF1010F18BF1546A3EB0A03019ADBB2F8
:105900005A43134608331E44761BB6F5807F92D85F
:10591000E618374B0AAF0FCB87E80F00079B05F15E
:1059200018000344C5F1100818464246314609F0F4
:10593000F7F842463046791909F0F2F8E378013B6E
:10594000E37001200FB0BDE8F08F0993089B03EBD3
:105950000802B2F5807F3FF66EAF069A04EB0801AD
:10596000059809F0DDF80AA807F02CFA099B50B158
:1059700009F101095FFA89F96BB9B9F1010F3FF635
:105980005AAF012307E00AA8099307F0BFFA099B61
:105990000028EDD103469DF82820FF2A3FF44BAFA5
:1059A000BDF82820E2B9BDF82C00BDF82A20BDF8CA
:1059B00036100243BDF82E000243BDF8300002430A
:1059C000BDF832000243BDF83400024392B251EAFE
:1059D00002003FF430AF1AB9B1F5807F3FF42BAF2E
:1059E0000137FFB2D8447EE74C3800205C380020F5
:1059F0007438002000292DE9F04139DBCA0737D47B
:105A00004378002B34D140F26343425A45189A42FE
:105A10002ED1194F3B7B5BB37A7BEB789A4227D12F
:105A2000AE78B30624D4AB880C201C0A44EA0324C5
:105A3000124BA4B2D3F80080FFF73CF80146404671
:105A400009F029FEB7F84E70A978A74294BF002745
:105A50000127F609BE42C1F380131CBF41F040018B
:105A6000A97086EA07022146BDE8F04109F0E0BED0
:105A70000020BDE8F08100BF64320020B8020020A1
:105A80002DE9F743284D0123298828480DF1070205
:105A90000AF0F3FA254F0446002840D1012003B054
:105AA000BDE8F08329884846283989B20AF0DCFA33
:105AB0002A88E31B9A4221DDD21A2046A11909F057
:105AC000A5F898F800308DF807309DF80730062BC0
:105AD000E4D0112BE2D03A2BE0D02B2B03D07BB9B2
:105AE000A378632B0CD1237888F8003066780136D0
:105AF000F600704208F090FA0028D3D10020CEE7DB
:105B00002988E31BC91A204600230DF1070289B238
:105B10000AF0B3FA04460028C0D08046D5E7B9465B
:105B200007F10608D1E700BF4C3800205C380020A0
:105B30002DE9F04FDFF8288287B098F80C30C3B118
:105B400048F2FE037F4E328B35469A4211D0337EA7
:105B5000FF2B0ED0FFF798FA0446002800F0B8801B
:105B6000FFF78EFF06F11800FFF788FB06F1180912
:105B700008B901240EE04946002007F001FE07465F
:105B80000028F6D0002008F11C0107F0F9FD82463C
:105B900020B90024204607B0BDE8F08F4946002018
:105BA00007F004FE0028F4D000264FF00F087C69AF
:105BB000DFF8A0B1F3B200930CB1A2456ED1009B07
:105BC000C8F1100B5C1EC8F1180304FB0B34E6B2DD
:105BD00014F0070418BFC4F108045B4B18BFE4B20B
:105BE0001A882644F6B29319B3F5A06FD1DC574B4F
:105BF000283A188828302B18304419462844019335
:105C000009F004F8019B32461846002109F068F8B3
:105C1000AB7985F828302B23AB71B6F1080348BF68
:105C200006F1FF33DB1085F82930032385F82A308D
:105C3000009B85F82B3008EB081385F82C302301E6
:105C400085F82D30424B341B1C44424B02AD9B69FE
:105C5000A84400937B699A450DD03946009B28469D
:105C6000A4EB0B0498475A464146204608F058FFDB
:105C70007F69002FEED13946009B2846984795E86A
:105C80000F0089E80F00304608F0C6F92E4B2D486A
:105C90001988283989B20AF0E7F96AE72146DBF862
:105CA000183002A8984700232B4A02A911F801CB0B
:105CB00012F8010B844504D0984506DA6469013670
:105CC00078E70133102BF1D1F8E75FFA83F8F5E7B5
:105CD00006F1080007F076F880B3204BF27993F8CC
:105CE00006319A422AD1184D2A88B2F59F6F3FF6A5
:105CF00051AF06F12801283A06F1300008F086FF7E
:105D0000B379B8F84E2086F8283040F263437385A3
:105D1000130A43EA0223F38598F80D300820B47182
:105D200086F8294086F82C4086F82D3008F074F962
:105D300029883046283989B20AF096F9FFF704FD20
:105D4000044627E75C3800204C3800207C290020DE
:105D5000843800205402210074380020DC360020F2
:105D60006432002008B50A48037B63B1094B0A4935
:105D70001B88407B2C335A185B5C984203D1D17846
:105D80009078FFF761FCBDE8084008F08BB900BFD0
:105D9000643200207C2900205C3800202DE9F0438B
:105DA0008FB02622002104A808F09AFF434B444CF0
:105DB0001E88444B06F12C02D718217BD25C8DF84B
:105DC000322031B3617B914223D1E84608330FCBB7
:105DD00088E80F00102200210DEB020008F080FF80
:105DE000394B1D882C3DAD1BADB2032D11D9237E3F
:105DF000FA788DF833307B78ADF830208DF8353077
:105E00005B060BD40426B54214DC404604A9FFF718
:105E1000F5FB08F047F90FB0BDE8F083132DF8D972
:105E20001022391D04F11C0008F04CFE0028F0D1AE
:105E30001426E8E7BA5D344612B3731C9D42E8DDD0
:105E4000BB195B7802331E44AE42E2DC052A19D04E
:105E5000062AD8D1052BDCDD3A195279132B8DF89F
:105E60003320D0DDA31D3B4404AC03F1100C2246CB
:105E700018685968083303C263451446F7D1C2E76E
:105E80000123E0E7032BC4DD3A1992F803908DF863
:105E9000349009F107094FEAE90909F104029A422D
:105EA000B7D11022002108A808F01AFF211D4A4688
:105EB000394408A808F034FEA5E700BF7C2900207B
:105EC000643200205C3800204C3800202DE9F04777
:105ED0009CB05C22002105A808F002FF0123ADF868
:105EE000243040F60843864A864CADF82E30864B67
:105EF0000DF10408CDE90C2304F108030FCB88E869
:105F00000F00824A824B17881B882C3FFF1ABFB2B2
:105F1000172F31D92C331D191B5D02218DF82C3020
:105F20006B7828468DF82B3009F0A5FC2B79ADF85D
:105F3000260023F07F028DF82820C3F3C20203F06D
:105F400007038DF82A306B798DF829208DF82D30D4
:105F500005AC05F1080305F11806224618685968D2
:105F6000083303C2B3421446F7D11824A74208DC11
:105F7000404605A9FFF774FA08F094F81CB0BDE894
:105F8000F0872B5DF3B1621C9742F5DD2A19567834
:105F9000023604EB0609B945EEDC023B062BEBD8D2
:105FA00001A252F823F000BFC95F20002B6020003F
:105FB00069602000795F2000795F2000795F200010
:105FC000BF6020000126E4E7052ED5DD2B191A79E4
:105FD00093F803C0D00940EA4C008DF86900C2F381
:105FE000011002F00F0299788DF86B205A798DF824
:105FF00068108DF86A008DF86C2049B1072909D125
:10600000072EB9DD2846A11D09F035FCADF86E005C
:106010004C46ABE70229AFD1072EADDD9A79DB798B
:106020008DF86E208DF86F30F2E7072EA4DD2B1966
:1060300093F802A0DB782846211D8DF84D308DF8AD
:106040004CA009F003FC0AF10702D210D31DB342A1
:10605000129091DABAF1800F8ED804F10801294428
:106060000EA808F05DFDD3E7102E85D12B19DA7844
:10607000A11D8DF82E201A7928468DF82F205A79E7
:106080008DF8302009F0F7FB04F10801ADF8340079
:10609000284609F0F0FB04F10A01ADF83600284665
:1060A00009F0E9FB5B7BADF8240004F10E01284602
:1060B0008DF8313009F0DFFBADF83200A8E7202E73
:1060C0007FF45AAF2B199A78802A8DF864203FF616
:1060D00053AFDB7804F1080128468DF8653009F0EC
:1060E000B5FB10342C44189014AA04F11006134682
:1060F00020686168083403C3B4421A46F7D187E7C1
:10610000001E3C005C380020000480004C38002059
:106110007C29002008B5084B1B7B43B10748017E52
:106120000830A1F1FF0359425941FFF751FABDE888
:10613000084007F0B7BF00BF643200205C38002081
:1061400010B50446FFF7F4F80022084B08491B88F5
:106150002C335818427007485A54944218BF2046AE
:10616000BDE8104002239B2107F058B97C2900208C
:106170005C380020A03A00202DE9F0478046FFF768
:10618000D7F800F0CBFD18B1B8F1000F00F0D180C6
:10619000694B6A4D1B886A4A697B2C339C18995459
:1061A00095F85230637000F0B9FD002840F0B480DB
:1061B000B5F84E200221204609F063FB95F85320E4
:1061C00095F85430002A18BF8022A97B03F00703FA
:1061D00043EAC10313432371EB7B5A4E63710023DF
:1061E00004F10802A371E37106F11007334603CBF3
:1061F000BB42106051601E4602F10802F6D100F069
:106200008DFD002840F093802A78002A00F08F80CE
:106210000623022163766B78072A4FEA5300E07663
:10622000A8784FEAC31343EA0013E878217643EADB
:106230000003A276237772D1617720461E21EA8877
:1062400009F01FFB20260423A3550E234FF0000A5C
:10625000A7197B702B7C2046FB706B7CAA8A3B7154
:10626000AB7CB11D7B7187F802A009F00AFB2046C8
:10627000EA8A06F1080109F004FBAB6820461A8C93
:1062800006F10A0109F0FDFA2B7E20467B736A8B2A
:1062900087F80CA006F10E0109F0F3FA95F84030EA
:1062A00006F1100943B3082204F809201E22BB742A
:1062B00095F841302046FB747A7406F11401EA6BBC
:1062C00009F0D0FAEA6B06F1180109F0CBFA06F1F1
:1062D0001C031D4A44F803A006F120031C4402F1EC
:1062E0001005134603CBAB42206061601A4604F1EF
:1062F0000804F6D106F1300900F010FD20B9134B67
:10630000B8F1000F08BF98464B464046BDE8F0473D
:1063100001229B2107F082B84FF6FF724AE7022A5A
:1063200007D1AB796277A377EB79E3778AE7182611
:1063300089E7BDE8F08700BF7C2900206432002097
:106340005C3800208032002090320020A03A0020EB
:106350002DE9F041074600F047FD2D4E0446706CD4
:1063600009F0F0FA0546FEF7E3FF337B002B4CD033
:10637000736C002B49D0002C47D0002D45D0B37B47
:10638000002B42D0234B24491A88707B2C3253189F
:106390005054002297420CBF11468021597096F844
:1063A00058109A70D97005219A71802219711221A2
:1063B000DA712246597104F1100003F1080152F814
:1063C000044B824241F8044BF9D106221A7614227A
:1063D000124C5A76002203CCC3F81E002846C3F89C
:1063E00022109A76DA761A775F7750F8082F9B2179
:1063F000C3F826204268A4F10800C3F82A20BDE8AB
:10640000F0412E23022207F009B8BDE8F08100BF59
:10641000643200207C2900205C380020803200207B
:1064200070B504460E461546FEF782FF094B0A4931
:106430001B880A4A497B2C3399549818002386708C
:106440004370C57004232046BDE8704003229B21A1
:1064500006F0E4BF7C290020643200205C38002074
:1064600008B5074806F034FF064806F031FF064835
:1064700006F02EFFBDE80840044806F029BF00BF23
:10648000880200207C0200207002002064020020AC
:106490000022014B1A7070476432002070B5054627
:1064A00009F015FA0B4B0446586C09F010FA2B68EA
:1064B0000646BF3443B1FCF7E9FD2B68C01AB0F5BE
:1064C000963F01D9002070BDB442B4BF0020012026
:1064D000F9E700BF6432002038B5044678B1094BB3
:1064E000DD8A09F0F4F9A28853194FF6FF7293423E
:1064F00028BF1346834238BF034698B238BD4FF6D3
:10650000FF70FBE76432002070B50D46044648B3C7
:1065100009F0FAF9061E18BF01261DB1284609F038
:10652000F3F940B92EB9002403E02846FFF7B6FF7F
:1065300030B1204670BD9EB10C4E726CA242F4D0B8
:10654000736C9D4203D12046FFF7A8FF40B9204657
:1065500009F0BDF90646284609F0B9F98642E8D3A4
:106560002C46E6E70029DED02646D7E76432002035
:1065700010B500F02BF828B1BDE81040034B9B6824
:106580005B6918474FF6FF7010BD00BF64320020F2
:1065900008B50C4B0146D3F82821824204BF0022E3
:1065A000C3F82821D3F80421824204BF0022C3F893
:1065B0000421054B1868FEF7FFF8BDE8084000F01D
:1065C00087BB00BF64320020B8020020024B0146A6
:1065D000186809F060B800BFB802002020B1044B71
:1065E0009B685B6903B118474FF6FF70704700BFA7
:1065F00064320020024B01461868FEF703B900BF61
:10660000B80200202DE9F8431D4E8046357B45B188
:106610001C4F00253868FEF729F84FF6FF7904462D
:1066200014B92846BDE8F8832046FFF7D7FF484550
:106630001AD0F38A834217D8B28A3AB1B6F84C30EE
:1066400013444B4528BF4B4698420DDCB3682046A7
:10665000DB68984740B1B8F1000F0BD1B36828460A
:1066600021469B699847054621463868FDF7D8FFC3
:106670000446D5E7204609F073F90028EED1F3E788
:1066800064320020B802002070B50446104D686CDA
:10669000A0421CD00F4E214604F0C6FA696C306847
:1066A000FEF7A8F821463068FEF79CF8686C09F000
:1066B00049F906F0C7FA06F0ADFA204609F042F9AA
:1066C000002106F0D5FA01236C6485F85B3070BDBB
:1066D00064320020B802002038B50A4D0020FFF7D0
:1066E000D3FF2868FDF7C2FF044618B9BDE838405B
:1066F000FEF71EBE2046FFF74BFF21462868FDF738
:106700008FFFF1E7B802002008B509F0A4FB06F0FE
:106710005DFA034B01461868BDE8084008F0BBBFAE
:10672000B802002070B5FEF7AFFC064610B1002499
:10673000204670BDFFF766FF04460028F7D009F039
:106740000FF90C4D10B1C5F82861F1E7D5F82831E3
:106750001BB9C5F8284100F04BFA6B6CA342E7D097
:106760000120FFF74FFF18B96B6C002BE0D1DEE77B
:106770000446DDE764320020024B03491868FDF748
:1067800037BF00BFB80200209165200008B5054B57
:10679000D3F8040109F0D6F818B1BDE80840FFF7B6
:1067A000EBBC08BD643200200348002290F85C1165
:1067B00000F59670FFF734BE64320020024B1B7B5D
:1067C0000BB1FEF709BD70476432002007B5044BDA
:1067D0001B6800930023FCF761FF03B05DF804FB26
:1067E00060320020F8B580264FF47A77144C4FF4CD
:1067F000FA6594F8551006FA01F1B1FBF7F3B1FB15
:10680000F5F52366FEF788FB05FB00F14FF6FF70F8
:10681000B1FBF0F1236E29445B1A2366012304F1D6
:10682000A400084AA4F85630FFF7D0FF94F85500AA
:1068300006FA00F0B0FBF7F0BDE8F84004F0D2B97A
:10684000643200204968200010B5FEF75FFD60B398
:10685000164B93F856201C46CAB1FEF715FC28B912
:10686000A37C1BB194F857209A4206D2B4F84E305C
:106870000020A4F85030FFF77FFC002384F8563046
:10688000216E0B4A0B48BDE81040FFF79FBF597CB3
:10689000187C93F8552001448A42BCBF013283F82A
:1068A0005520BDE81040FFF79DBF10BD64320020A9
:1068B000496820000833002008B5FEF72DFB4FF48F
:1068C0002071B0FBF1F303FB1101BDE8084089B270
:1068D000024A034801F5A071FFF778BF196920004B
:1068E00048330020012310B50A4C84F85A30FFF7D2
:1068F000E3FF94F8583094F958200133002AB4BFCC
:10690000DBB203F07F03207E84F85830BDE81040EE
:10691000FFF71EBD6432002010B50B4C94F85A30BE
:10692000207E013384F85A30FFF712FD94F85A3074
:10693000042B03D8BDE81040FFF7BEBF0348BDE8F5
:106940001040FEF7ADBC00BF643200205F0721009D
:1069500008B50B48FCF7F6FE80B1FEF7DDFA4FF400
:106960007061B0FBF1F303FB1101BDE8084089B28F
:10697000044A034801F5F061FFF728BF08BD00BFD6
:10698000FC0900208969200008B5FEF77DFB88B965
:10699000094B1A7B3AB15A6C2AB1B3F84E204FF624
:1069A000FF739A4206D10020FFF7CAFBBDE80840FA
:1069B000FFF7CEBF08BD00BF6432002010B50F4CFA
:1069C000237B43B9FFF7C4FFFEF7B2FCBDE81040DC
:1069D0000B48FCF785BE3C20FEF72EFC3C2006F061
:1069E00069FF237B002BEDD0636C002BEAD04FF6C0
:1069F000FF73B4F84E209A42E6D1E3E764320020F8
:106A00001C0A002010B5FEF781FC90B1094C94F8E7
:106A1000553013B1627C9A420BD200F07FF940B935
:106A2000637C84F8570084F85530BDE81040FFF7C8
:106A3000D9BE10BD64320020054B1A7B3AB1C3F8B1
:106A400004010021034A03F1C400FFF7BFBE7047F1
:106A5000643200208D67200010B5094C237B73B190
:106A6000A37B63B1FEF758FAC0F30801054A04F1AD
:106A7000E40001F58071BDE81040FFF7A7BE10BD2E
:106A800064320020E5682000F0B40D4A0D46117B09
:106A9000034699B102F5967600F11007344618685E
:106AA0005968083303C4BB422646F7D1A2F85C51AB
:106AB0000021F0BC034A0448FFF788BEF0BC7047D1
:106AC00064320020A9672000A033002010B50F4BCE
:106AD0001A7BD2B11C7EFF2C17D0598B4C43FEF78A
:106AE0001BFA4FF4F053B0FBF3F202FB13039BB21B
:106AF000E40103F5F0539C4288BFE41A2146BDE847
:106B00001040034A0348FFF761BE10BD6432002005
:106B1000E5682000483300202DE9F041FCF7B6FA83
:106B2000274D80462C7B44B1D5F828412CB9686CA0
:106B300030B108F015FF18B96C6C2046BDE8F08143
:106B4000FEF7EAF90325B0FBF5F505EB4505451B16
:106B50001C4FADB23868C5B1FDF788FD4FF6FF7622
:106B60000546002DE9D0284608F0FAFE38B9284637
:106B7000FFF734FD0CB1864201D906462C46294662
:106B80003868FDF74DFD0546EBE7FDF76FFD06465E
:106B90000028D2D0304608F0E3FE60B9304608F055
:106BA000D8FE40B103681CB1A8EB0302AA4202D987
:106BB0003446A8EB030531463868FDF731FDE6E7BA
:106BC00064320020B802002010B5074C237B4BB183
:106BD00008F0CFFE054A014604F58470BDE8104078
:106BE000FFF7F4BD10BD00BF643200208DF9200016
:106BF00010B5074C237B53B1FEF78EF9054AC0F35D
:106C0000080104F58470BDE81040FFF7DFBD10BD3A
:106C1000643200208DF9200010B5074C237B53B15E
:106C200004F18400FCF78EFD28B904F18400BDE86E
:106C30001040FCF771BD10BD6432002010B5094C46
:106C4000237B6BB104F18400FCF77CFD40B104F1BF
:106C500084004FF41641BDE81040034AFFF7B6BD6B
:106C600010BD00BF64320020BD67200008B54FF49E
:106C7000F051044A0448FFF7A9FDBDE80840FFF7BA
:106C800067BE00BFBD6920001C0A002010B50F4C74
:106C90002046FCF741FD04F12000FCF73DFD04F126
:106CA0004000FCF739FD04F16000FCF735FD04F10C
:106CB0008000FCF731FD04F1A400FCF72DFD04F188
:106CC000D800BDE81040FCF727BD00BFC832002047
:106CD0000448037B23B10021034A6430FFF776BDEB
:106CE000704700BF643200206FF92000044B187B0E
:106CF00020B193F85C00003818BF0120704700BF36
:106D000064320020044B187B20B193F85C00831E92
:106D100058425841704700BF64320020014B187838
:106D2000704700BFFC29002038B50D4604461022EC
:106D3000002107F0D5FF2A7D294607322046D208D8
:106D400007F0EEFE2046BDE83840014909F018B9C9
:106D50005438002008B540F2FF230D48038000237B
:106D600043808380C3800381438183814FF4D05368
:106D7000C38106F05BF8FEF7DFFCFFF7FDFCFFF7D1
:106D800075FFFFF76DFBBDE8084006F083BD00BF4F
:106D9000A03A002010B5094C237B012B0DD1FFF741
:106DA00015FC50B1D4F82831984204BF0023C4F830
:106DB0002831BDE81040FFF78BBF10BD64320020C2
:106DC0000B46024610B550B151B1064C03CC1060D1
:106DD0000120516053F80C1F91605968D16010BDBB
:106DE0000846FCE7803200202DE9F843174D2E7B42
:106DF00046B395F840602C35002E08BF00250027CB
:106E0000134CF60804F1540994F82030A3B194F817
:106E10002130012B10D1237CFE2B02D1637C802BEF
:106E20000AD004F110087DB132464146284607F0E9
:106E300049FE002808BF47461C344C45E4D138467B
:106E4000BDE8F8833546DAE74746F5E764320020C7
:106E5000DC3600201FB501466846FFF765FF68462F
:106E600005F0B0FF08B106F067F80022024B83F886
:106E7000402005B05DF804FB643200207FB50E466B
:106E80001546044640B34B1E7F2B25D812F0400018
:106E900020D010220021114807F022FFF21DD20855
:106EA00021460E4807F03CFE4FF0FF330C49684680
:106EB00081F84060CB6381F841502C31FFF734FFFB
:106EC000684605F07FFF014618B90122684605F0C3
:106ED000CFFF012004B070BD0020FBE790320020FE
:106EE00064320020014B1868704700BF3C0A002044
:106EF000064B18685A6808331B681B0443EA0223D0
:106F0000034A0343106843EA0060704740500D4055
:106F10004C500D40014608B5104A1368DB07FCD5FC
:106F200072B6FFF7E5FFC1F10703C34258BFC11DA9
:106F30000B4B0A0E1A60C1F3074243F8042CC1F34D
:106F4000072243F8082CCAB243F80C2C62B6054B52
:106F500019604FF40032044B1A6108BD50500D40C7
:106F60004C500D403C0A002000E100E008B5FDF760
:106F7000A7F90022084B1A604FF40032074BC3F800
:106F80009021C3F89020BFF34F8FBFF36F8FBDE800
:106F9000084000F019B800BF3C0A002000E100E002
:106FA00010B50246084607490C6844B95360029B75
:106FB000106093600A60FFF7ADFF204610BD03200C
:106FC000FCE700BF400A0020044B186820B10022F3
:106FD0001A60D0E901311847704700BF400A00200D
:106FE0002DE9F04104880546752C20D07C2C3DD03D
:106FF000002C4ED1FDF772FE284E294B294FDFF8A9
:10700000B08018703460336857F823202AB9264AB4
:10701000137075232B8001203EE008F8034093682D
:10702000002180209847336801333360EBE7002369
:107030001E4A1360194A1360184B1B4A1B681278CA
:107040009A4204DC194B1B68002BF0D1E1E7184A87
:10705000D256002A19DA134A002052F82320104B86
:107060001978FDF79DFE28B97C23D3E70C4B1B78DC
:107070008B42D0D1094B0E491A688B5C03F07F0319
:107080008B540A4A136801331360044A13680133AE
:10709000D1E7002303800320BDE8F081480A0020E7
:1070A000B33A002018030020FD290020440A0020E4
:1070B000B53A002070B505880446672D09D0792DB2
:1070C00031D0002D35D1FDF709FE1C4B18701C4B3B
:1070D0001D601C4E1A4D0AE00A282B6810D00D289E
:1070E0000ED07E2B03DC5A1C2A60174AD05430463F
:1070F00008F057FB431CEFD16723238001201BE0DE
:107100005A1C2A600025104A2846D5540B4B197882
:10711000FDF746FE0D4B2A4685211868FDF740FE17
:1071200018B97923E9E78529E8D10022044B1A60D0
:10713000CFE700230380032070BD00BFB43A0020D6
:107140004C0A0020500A0020FE2900206032002056
:1071500038B50E4C01462378254653B90C4808F043
:107160000DFB08B9012323700A48FDF759FE0120E1
:1071700038BD0A2801D00D28F6D1054808F0FEFADE
:107180000028F1D000232B70EEE700BF7E2A0020FC
:10719000500A0020DC020020044B054A00211A603E
:1071A0007F2204489A809971FDF722BE500A002080
:1071B0007F2A0020DC020020F7B506460D46002499
:1071C000084FAC4201D303B0F0BD301901A908F05B
:1071D0000CFC04343846BDF80410FDF7FFFCA4B2E3
:1071E000EFE700BF8A0721002DE9F04706460F466A
:1071F0009946904686B01AB97F211C48FBF7C2F821
:10720000002003F029FD054660BB06B0BDE8F0870D
:1072100005A908EB040008F0E8FBBDF8141051457F
:1072200003D10434A145F3DCEFE7114B114A1248B6
:10723000022F18BF1A46FDF7D1FC3046FDF7F4FACD
:107240000E4808F08AFA01230293BDF81630002296
:107250000193BDF81430394600932846334603F0B5
:10726000A9FDD2E700244FF6FF7ADBE7940721005F
:10727000910721008E072100A0072100EA082100C4
:1072800030B50D461446194685B000B11AB9C12172
:107290000C48FBF777F89BB9CDE900050DF10A031F
:1072A000012003AA08F0E4FB50B9204601F026FCB7
:1072B00030B102212046BDF80A30039AFFF794FF4F
:1072C00005B030BD940721002DE9F3410F46064675
:1072D00018B9A2210F48FBF755F8002003F0BCFCB9
:1072E000054698B902B0BDE8F08101A9301908F04F
:1072F0007CFBBDF80410414504D02846BDF80620AB
:1073000008F04CFD0434A742EFDCEBE700244FF615
:10731000FF78F8E79407210030B50D46144619466A
:1073200085B000B11AB9D9210B48FBF72BF88BB9FE
:10733000CDE900050DF10A03012003AA08F098FB2E
:1073400040B9204601F0DAFB20B1BDF80A100398DD
:10735000FFF7BAFF05B030BD940721002DE9F047D3
:107360008AB0044699461546129E5FFA81F822B902
:107370004FF4BD71AD48FBF705F828B1012800F0C6
:10738000FF800AB0BDE8F08716B940F28D11F1E731
:10739000B8F1010F0DD0B8F1020FF2D100931346EE
:1073A0000DF11D0208F02CFB002800F08180A048A0
:1073B00007E0009313460DF11D0208F021FB18B100
:1073C0009C4808F0CAF9DCE7CDE9005941460DF1C7
:1073D0001E0309AA08F04CFB05460028F0D19DF8D1
:1073E0001D109548FDF7FAFB3046FDF71DFA93484E
:1073F000FDF7F4FBBDF81E100998FFF7DDFE90487D
:1074000008F0ABF9284603F027FC80460028B8D0E6
:107410009DF81D30002BB4D0BDF81E30002BB0D02D
:1074200010222946874807F05BFC2F464FF01009D1
:10743000DFF810A2BDF81E209DF81D30A24201D930
:107440009D4218DB9D429CD17F48FDF7C7FB30462B
:10745000FDF7EAF97A4808F080F97A4B7B4ACDE9E2
:107460000337CDE901620097F0224FF000010120BF
:1074700001F0E8FE85E7099808A9204408F0B5FA6C
:10748000BDF820104046BDF8222008F0A9FC0146B6
:1074900058B9ABB2009301200423CDE901A908AA91
:1074A00008F0BFFA0437BFB201350434E4B2C1E7D3
:1074B0004146CDE900590DF11E0309AA08F0D8FA9A
:1074C00000287FF474AF9DF81D106148FDF786FB1E
:1074D0003046FDF7A9F95948FDF780FBBDF81E10AD
:1074E0000998FFF769FE564808F037F9204603F07F
:1074F000B3FB074600283FF444AF10222146514811
:1075000007F0EEFB9DF81D5015B1BDF81E5095BB60
:107510004D48FDF763FB3046FDF786F9484808F013
:107520001CF9484B4B4ACDE90335CDE90162009582
:107530009AE7099808A9204408F057FA3846BDF898
:107540002220BDF8201008F04BFC68B110234FF04A
:107550000001CDE9019301200423CDF8008008AAA1
:1075600008F05FFA0435ADB20434E4B2BDF81E3061
:10757000A342DED8CCE70025DFF8C890A846F5E79F
:1075800016B940F2A511F5E6304601F0B7FA002829
:107590003FF4F7AE304601F045FD00283FF4F1AE70
:1075A000B8F1000F7FF4EDAE01F022FC0128074690
:1075B00003D002281ED0284803E74146CDE90059F0
:1075C00008AB09AA08F054FA08B12448F9E624489F
:1075D000FDF704FBBDF820100998FFF7EDFD1848F2
:1075E00008F0BBF839463046BDF82030099AFFF75D
:1075F000FBFDC6E641462046CDE9005908AB09AA85
:1076000008F036FA0028E0D11648FDF7E7FABDF891
:1076100020100998FFF7D0FD094808F09EF8BDF842
:1076200020100998FFF750FEABE600BF9407210039
:1076300059082100CD072100F5072100120921007A
:10764000EA082100FF2A0020320821008172200070
:1076500084082100197320005E092100C40821005C
:10766000ED08210024092100B0230B49024603FB49
:107670000013002030B5014604465881074B9D7821
:1076800025B11D78954204BF9C70013001310C2951
:1076900003F17103F3D130BD5C0A00201A2B0020E6
:1076A0000122044BFD211A70002299705A70DA7081
:1076B000704700BF0F2B002010B5134C0220A1799A
:1076C000FDF7E4F9A379112B09D1218D638D99423E
:1076D00028BF1946BDE810400120FDF7D7B9062B99
:1076E00006D10A4B1B8828331A19195B5388EEE719
:1076F0003A2B06D1054B28341B88195B49BA89B24D
:10770000E8E70021E6E700BF5C3800207C29002084
:1077100030B513780446087A83F0020398421FD1EB
:10772000487A537898421BD1887A9378984217D137
:10773000C87AD378984213D1087B137998420FD135
:10774000487B537998420BD1887B9379984207D133
:10775000C87BD379984203D10320A040C0B230BD8A
:107760000E4B08891D461A6860B94889B0F57F4FED
:1077700008D18889FE2805D1C989022022F8021B78
:107780001A60EAE701F1080303CB083242F8080C5B
:1077900042F8041C01202A60DFE700BFBC0B002078
:1077A00010B5084C01462378012B08D10822A01CF3
:1077B00007F088F900280CBF2046002010BD0020EB
:1077C000FCE700BF0F2B002008B5044B00219B688D
:1077D00003489847BDE8084006F01CBDD0022100D0
:1077E0004978200038B5134B13491C78134B0144DA
:1077F0001D68134B2A461B68181907F091F9601988
:1078000080B2FDF765F8FDF72BFB044668B1FFF782
:10781000DBFF2046FDF75CFB2046FDF743FB094BF1
:107820001B68012B01D0032B01DD002038BD012096
:10783000FCE700BF663000205C380020C80B002049
:10784000CC0B0020C00B002070B5124B0C461B68FF
:10785000154613B108469B6898470F4B0D201C60D6
:10786000FDF728F90D49064607F050FE80B92A4673
:1078700021463046FCF72EFC094B214630462A466D
:107880005B6C984729462046BDE8704008F047BB2E
:1078900070BD00BF580A0020C00B00205403210017
:1078A00054022100F8B50E460546FDF71BF8114BB2
:1078B0001978441A631E6D2B19D80F4B00221846F5
:1078C0009F787FB971235343C218567094700B4A46
:1078D000C5541568033322462944184407F020F99B
:1078E0002046F8BD01320C2A03F17103E8D14FF0B4
:1078F000FF34F5E7663000201A2B0020CC0B002067
:107900002DE9F0414FEA121802F00F04B8F10F0F01
:1079100008BF4FF010080F2C07461D4608BF102463
:1079200011B1424607F0FCF808EB04020F2A06DC0E
:107930000021C2F1100207EB080007F0D1F9F4B101
:10794000144A154D16682B689B1B1E19FCF7CAFFBD
:1079500086421CDC2E68C4F11000224631463844B1
:1079600007F0DEF8022C06D1B8F10A0F9FBFFF2303
:10797000FB72FE233B7334442C60012008E0B8F115
:10798000000FFAD02946384608F0FAFAF5E7002049
:10799000BDE8F081CC0B0020BC0B002000232DE9BA
:1079A000F04FC04EC04D85B033702B700446FDF7CC
:1079B00017F8FCF7A9FFBD4ABD4B1268CDE9005688
:1079C000186003930AB1FFF777FE042006F046FB28
:1079D00001460520FDF75AF8B6490D20002C18BFC6
:1079E0002146FDF75FF8B44B9B699847B34B0028DD
:1079F000186003DC002005B0BDE8F08F039BB04D9C
:107A0000D3F80080009B40441F78023708EB07043E
:107A100004F1260282422C60ECD20023A94808F827
:107A20000730FFF7BDFE8346A748FFF7B9FE814642
:107A3000BBF1000F02D1002800F0228101342C603C
:107A40008025A24C9E4E94F801C022784FEA1C1368
:107A500043EA0213D9B2C3F3850343EA811302F068
:107A60000F022CF00F011CF00F0F58B242EA010276
:107A7000DBB240F007816188002940F00381002AD1
:107A800000F038814FF0700A326802F8013B326032
:107A9000A379112B07D033B13C2B04D0A3F12B02D7
:107AA000012A00F22A814AF0040AE379402B00F00F
:107AB0002981FF2B00F02981012B40F029814AF018
:107AC000010A2389002B40F02881A289638913438E
:107AD000E2891343228A1343628A1343A28A13431F
