:020000040020DA
:10200000684400205997200029FD200027FD20006A
:1020100027FD200027FD200027FD200000000000F4
:1020200000000000000000000000000027FD20006C
:1020300027FD20000000000027FD200033F02000D5
:1020400081F6200087F620008DF6200093F6200010
:1020500000000000310021003700210027FD200092
:1020600027FD20000000000000000000000000002C
:10207000000000000000000027FD2000000000001C
:10208000000000000000000027FD200027FD2000C8
:1020900027FD200027FD200027FD200027FD200030
:1020A00027FD200027FD200027FD200027FD200020
:1020B00027FD200027FD200027FD200027FD200010
:1020C00027FD200027FD200027FD200027FD200000
:1020D00027FD2000000000000000000000000000BC
:1020E00000000000000000000000000000000000F0
:1020F0000000000000000000C5C92000D5C9200074
:1021000000000000000000000000000000000000CF
:1021100000000000000000000000000000000000BF
:1021200000000000000000000000000000000000AF
:10213000000000000000000000000000000000009F
:10214000000000000000000000000000000000008F
:10215000000000000000000000000000000000007F
:10216000000000000000000000000000000000006F
:10217000000000000000000000000000000000005F
:10218000000000000000000000000000000000004F
:10219000000000000000000000000000000000003F
:1021A000000000000000000000000000000000002F
:1021B000000000000000000000000000000000001F
:1021C000000000000000000000000000000000000F
:1021D00000000000000000000000000000000000FF
:1021E00000000000000000000000000000000000EF
:1021F00000000000000000000000000000000000DF
:1022000000000000000000000000000000000000CE
:1022100000000000000000000000000000000000BE
:1022200000000000000000000000000000000000AE
:10223000000000000000000000000000000000009E
:10224000000000000000000000000000000000008E
:10225000000000000000000000000000000000007E
:10226000000000000000000000000000000000006E
:1022700027FD2000A12F2000C52F2000F9322000CB
:1022800069492000016E200027FD2000024A1368E2
:1022900043F030031360704700700D400E2870B596
:1022A00006460BD1134B1C6844F00200186012481C
:1022B000056825F03F0343F0010303600F480368FE
:1022C00023F0FF031A43114331430D4A01601368A1
:1022D0001B06FCD50B4B0C4A1B68106803F0FC0373
:1022E00043EA00230E2E18B201BF034B1D60014BC1
:1022F0001C6070BD34000144F486084008700D4035
:1023000000700D400C700D4010700D40FF2310B593
:10231000064C4FF4FA60236000F0CCFE302200211E
:102320000620FFF7BBFF0023236010BD00920D4085
:10233000802870B51ED100240F4E104D3368224600
:1023400023F0800333602B68072143F080032B6068
:102350000B4B20461C6001F0E1FC3368012223F0A6
:10236000400333602B68062123F0400320462B6096
:1023700001F0D4FC002070BD20940D4000940D406D
:1023800000920D400A4608B50146054802F070FB70
:1023900004480DF0C6FA04480DF0C3FAFEE700BF8A
:1023A000B0052100D5052100F40521002DE9F341F8
:1023B00003880446BBB1B3F5867F2DD1822915D1A0
:1023C0000DF06AF9BFF35F8F0022164B1E681A608A
:1023D000BFF35F8F0DF064F9134D144FDFF8508099
:1023E00055F8040B20B94FF486732380012016E0C2
:1023F00090F8493026FA03F3DB07F1D501F068F8CD
:102400000028EDD03B684246009355F8043C022179
:10241000184601F009F8E3E700230380032002B027
:10242000BDE8F0814C08002068040020283000201E
:102430008D242000034A136803430348136002F00D
:1024400039BC00BF4C080020FC05002013B5044631
:1024500090F84A308021013380F84A30084B094A0D
:102460001B6800930346203000F0DEFF2246002068
:10247000054B197802B0BDE8104002F0DBBB00BF8D
:10248000283000204D242000593C002073B504461C
:1024900001F01EF840B304F12006304601F018F8B0
:1024A000054620460CF08AFD012815D1E5B100252E
:1024B0000E4B0F4A1B687E2100933046234684F85A
:1024C0004A5000F0B1FF22460A4B2846197802B064
:1024D000BDE8704002F0AEBB30B92DB9304600F017
:1024E000E1FF2246044BF0E702B070BD2830002027
:1024F0004D2420005A3C0020583C00202DE9F84390
:1025000002F036FB334B344E187002F031FB334B84
:10251000334D187002F02CFB324B334F18700023F0
:10252000B360324BDFF8D080DFF8D090736055F89D
:10253000041B39B92E4802F0A5FBBDE8F843264834
:1025400001F06EBB012491F849304A6CD9080903A7
:10255000C85903F0070304FA03F320EA0303CB513D
:1025600055F8043C93F84930D908090351F808009C
:1025700003F0070304FA03F320EA030341F80830E9
:1025800055F8043C42F08C0193F8490001F0E4FA5C
:1025900055F8043C93F84930DA08120352F8091050
:1025A00003F0070304FA03F30B4342F8093055F82C
:1025B000043C93F84930DB080E4A04FA03F3136035
:1025C00055F8043C93F849309C40B3681C43B46010
:1025D000ADE700BF5A3C002040080020583C0020D6
:1025E00068040020593C002020940D403524200030
:1025F000FC05002000E100E000940D4010940D4027
:102600000B4B1A689207FCD41B685B065EBFED2279
:10261000084B1A60084B1B6813B1EF22054B1A6078
:10262000064A0120137803F07F031370704700BF40
:102630004C860840388808402C86084080230020BB
:10264000044B186800F02200A0F1200358425841C2
:10265000704700BF4C860840024B186800F04000ED
:10266000704700BF4C860840074B93F90020002AB2
:1026700008DBED21054A1160E32111601A7862F050
:102680007F021A700120704780230020388808409C
:1026900010B50A4B04461B6813F03F0302D0FFF746
:1026A000AFFF0123064904EB84022C3A0A600BB108
:1026B000FFF7DAFF034B1C7010BD00BF48860840CF
:1026C0003C8608402A08002010B50C46002900F07E
:1026D000AD80192800F2AC80DFE800F00D1E212843
:1026E0002A40495C61767F7AAAAAAA9698599AAA42
:1026F0009C9EA0A2A4A64F4B186810F0FF0001D129
:10270000206008E04C4B1B6813F0030F0CBF012343
:1027100002232360002010BD484B1B78F9E7484B8B
:102720001A68043B1B6843EA0223F2E7454BF7E7CC
:1027300000230B60444B404A1B6803F001030B600D
:102740001268900644BF43F002030B603F4B1B78B6
:10275000002BDFD00B6843F00403DAE700203C4B8A
:1027600008601B78002BD5D001230B60D3E7394BD1
:1027700039491A680023D2B201EBC30000799042B4
:1027800002D851F83330C4E701330E2BF4D16FF087
:102790001703BEE7314B1B685BB2493BB9E7304BCF
:1027A0001B6899060ED1FFF75FFF01222D480368D1
:1027B00059B28031FBD0493B59B20AB1FFF720FF33
:1027C0002160A7E70022F1E7274B93F90030A0E74B
:1027D000264B1B7803F07F039BE7214B1B689A066F
:1027E00010D1FFF741FF012221490B68DB07FCD51F
:1027F000204B1B6803F003032360002A8AD0FFF7F5
:10280000FFFE87E70022EFE70B2382E71A2380E72A
:1028100007237EE703237CE720237AE70C2378E76E
:10282000082376E700206BE77D2372E7022072E73A
:10283000012070E72C860840248608402A080020E2
:10284000CC850840D4850840008608407F230020BE
:102850002B08002040860840E803210058860840E5
:102860004886084060860840812300207E2300209F
:10287000648608409C86084008B50B4B1B68990687
:102880000FD1FFF7F1FE012308490A68D207FCD5F2
:10289000074A1168C1F300110BB1FFF7B1FE0846FA
:1028A00008BD0023F0E700BF488608406486084062
:1028B0004C8608400C280DD1082A0DD161B1074B78
:1028C000074A083111F8010D43F8040B9342F9D17E
:1028D000002070470120704702207047A8850840FB
:1028E000C885084070B52E4E0246306810F0400092
:1028F00007D02C4D2868040604D5ED2200202A4B71
:102900001A6070BDC0B20428F7D902388842F4DCDE
:10291000C4B2032C1ED12B6813702B6853702B6824
:1029200093702968214B493949B219702B68204DA1
:1029300018062B70E1D5042089B201F0F1FF297847
:10294000032001F07F0101F0EBFF1A4B1B78CBB1A4
:102950002046D6E711190320013909F0EDFF164B87
:10296000611E032043EA011109F0F0FF032009F082
:10297000F7FF03200AF00CF803200AF015F80028EE
:10298000FAD1CEE733685A06E2D533681B0603D581
:102990000A4802F08FF9DBE7ED22034B1A60D7E714
:1029A0004C86084028880840388808408123002049
:1029B0007E2300207F23002002C0010C0C06002093
:1029C0007D2938B505460C4623D8134A13689B0762
:1029D000FCD4124B93F90030002B01DBFFF744FECF
:1029E000EE220F4B02201A60A21C013C43F8102C6F
:1029F000291909F099FF0B49022041EA041109F055
:102A0000A5FF022009F0ACFF022009F0C1FF002061
:102A100038BD0120FCE700BF4C8608408023002021
:102A20003888084002C001C00C282DE9F0470C4648
:102A300010D1082A40F0828000297FD0404B414AC3
:102A40004C1E53F80419934204F8011FF9D10020D9
:102A5000BDE8F0870D2867D1042A6FD100296DD019
:102A6000394B3A491A68DFF8F88022F007021A60F9
:102A70000A68374F42F008020A60D8F800003A6846
:102A80001D68DFF8E0E0DFF8E0C025F070051D60AC
:102A9000DEF80050DCF80060C0B2120240EA0660C6
:102AA00092B202434FEA05492A4809F47F09D0F857
:102AB00000A042EA09061A685FFA8AF522F00702C6
:102AC00042F001021A600A6842F008020A60D8F86F
:102AD00000203F68196821F0700141F01001196071
:102AE000DEF80010DCF800C0D3B23A0243EA0C630F
:102AF00092B213430A04016802F47F0243EA020817
:102B00005FFA81F904F03EF9B6EB080165EB0905BF
:102B1000ED0307460023C8030F4A45EA51410BF075
:102B20001BFF3F1A276092E7132805D1042A05D11D
:102B300021B10A4B0B608AE7012089E7022087E771
:102B4000C4850840A48508401088084004880840CF
:102B5000188808401C8808400048E80184052100C6
:102B60001488084024880840208808407D28F8B54B
:102B700043D8234B93F90030002B18DB04F002F903
:102B80000446FFF771FDC4F1FF2404F57F04F63419
:102B900004F0F8F8C442FBD401261A4B1B7843B961
:102BA000194C2368990609D502210846F8BD00266C
:102BB000F3E7FFF761FE0028F2D1F5E7E9220425EB
:102BC000124F3A6023689A0703D4013D15F0FF05C0
:102BD0000AD123689B070BD4EE2301213B60002E12
:102BE000E3D0FFF70DFDE0E7062000F063FAE9E728
:102BF000216811F00201FBD1F1E70121D5E700BF07
:102C0000802300202B0800204C860840388808408C
:102C1000224B1870002836D0214A13681B03FCD5BC
:102C2000204B1A6842F002021A601A6842F0010250
:102C30001A601A685007FCD51A6822F001021A605F
:102C40001A685107FCD41A6842F002021A601A6826
:102C500042F001021A601A685207FCD5124A136842
:102C600023F004031360D2F8A83123F00403C2F860
:102C7000A8314FF400520D4BC3F89020BFF34F8F93
:102C8000BFF36F8F7047084A136843F00403136063
:102C90004FF40052054B1A61704700BF7F2300209C
:102CA00004200D40048808408C86084000E100E0C4
:102CB0002DE9F0412E4F3D7815F0010555D1012445
:102CC000F8222C4B4FF07F081C605C609C60A3F5E1
:102CD0009323A3F514731A600922C3F890211522D7
:102CE0001A670B22703303F59B2303F59E731A605A
:102CF000A3F59B23A3F5A6731C604023D5221E4E8B
:102D00003360336843F0200333601C4B1D60C3F80D
:102D100048809A631A4B1878FFF7BAFC336823F09F
:102D20000C033360174BC3F800804FF48042164BFE
:102D30001A61022009F020FE1449022009F0FCFD6E
:102D4000032009F019FE1149032009F0EDFD104B95
:102D50001878FFF75DFF0F48294601F093FF2046E2
:102D60003B7823433B70BDE8F0810020FBE700BFC8
:102D700080230020A8200D402486084008860840B3
:102D80002A0800209486084000E100E028880840D6
:102D90007F2300200C06002038B5038804463BB38F
:102DA00040F28542934228D1822924D1154B1B78C9
:102DB00073B901F05FFD01F0F1FC8021FFF792FD96
:102DC000002805DD80B201F0CDFC0F4BDB68984791
:102DD0000E4B1A7852060BD500221A700C4B1D6848
:102DE000FFF70EFCFFF764FFAB0601D0FFF73CFCDA
:102DF00040F285432380012002E00023038003206A
:102E000038BD00BF7F230020F8042100802300206C
:102E10004886084013B50C460E2800F2A380DFE870
:102E200000F0084A52595C787E91A1A1A1A1A1A10C
:102E30009600012904D1FFF717FC002002B010BD55
:102E400011B9FFF7DDFBF8E78B1E012B00F28C8038
:102E5000002001A9FFF738FC022C019B19D1022B9D
:102E6000EBD05A1E53425341404A1370FFF7C8FB40
:102E70003F4B404A1968116042221A60D3F8C010D3
:102E80003D4A11601822C3F8C020E922C3F8142279
:102E9000D3E7022BD1D1EF22384B1A60354B1A6899
:102EA000334B1A60344B1A68354B1A602F4B1B7822
:102EB000002BC2D0BFE7A1F10B030F2B54D8C8B22F
:102EC000FFF7E6FBB9E72F4BCAB2C4F307241A6039
:102ED0005C60B2E72C4BCAB2F7E731F0070343D18D
:102EE0002A4B11F0010F1A68C1F3800014BF42F0A1
:102EF000010222F001021A601D4B11F0020F1A6844
:102F000014BF42F0200222F020021A60FFF780FE78
:102F100093E731F0010027D11D4B19708EE701F1C5
:102F200018031F2B20D80D231A4A52F833108C4255
:102F300005DC02EBC3031A79174B1A607DE7013BEE
:102F4000F3D27AE7154BCCB249341C6075E70129FE
:102F50000AD8074B1A6811B122F00C02EDE742F0D3
:102F60000C02EAE7012069E7022067E782230020DC
:102F70002486084050080020540800203888084063
:102F8000E4860840C8850840D0850840008608408F
:102F90002B080020E803210040860840588608409E
:102FA00008B5054B1B7813B9044801F083FE0022D5
:102FB000034B1A6008BD00BF7F2300200C060020D1
:102FC00034880840064B07481A68042A1FBF064980
:102FD0000A7842F040020A7000221A6001F06ABECC
:102FE0002C8808400C060020802300202DE9F8439F
:102FF00003F0C8FE10490246D1E90045AC46A042A4
:1030000038BF05F1010C6346C1E900230B48D0E944
:103010000089B8EB040169EB05048E1844EB0C073A
:10302000C0E9006700F006FB18B1BDE8F84300F006
:1030300085BABDE8F88300BF3808002030080020BA
:10304000E0210D4B0D4A5A600D4A82F823100022F0
:1030500007219A6019600B490B6843F001030B606C
:10306000094B1A60042243F80C2C012243F8082C67
:103070000F22DA62704700BF10E000E047E801006D
:1030800000ED00E008200D400C000340034BD3E9A5
:103090000023100A40EA0360704700BF3808002090
:1030A000034BD3E90023D00B40EA4340704700BFF5
:1030B00030080020054B186053F81C2C1C3B42F0D4
:1030C00001021A601A68D207FCD470472800034036
:1030D00010B5064C236823F001032360FFF786FF39
:1030E000236843F00103236010BD00BF10E000E03F
:1030F0002DE9F0410CF0F9FBFFF7A2FF0CF058FDB1
:1031000001F040FD0021614801F0BCFD00F082F9B2
:103110000AF0C8FF06F0AEFA01F03EFC01F0D6FD61
:103120005B4B5C4F1B68DFF8BC8198475A4D7B684E
:103130009847D8F804309847AA79EB79574E584CFD
:1031400003EB022333802368022B69DD554A56497D
:10315000564801F08DFC56480CF0E3FB2368022B27
:103160005EDD504A5049514801F082FC514B5248B3
:10317000196801F07DFC2368022B51DD494A4A4958
:103180004A4801F075FCD8F800104C4801F070FC7A
:103190002368022B44DD434A4349444801F068FC5C
:1031A0003968474801F064FC2368022B38DD3D4A4A
:1031B0003D493E4801F05CFC4AF6CD31414801F002
:1031C00057FC2368022B2BDD364A3749374801F07C
:1031D0004FFC04213C4801F04BFC2368022B1FDD0F
:1031E000304A3149314801F043FC3188374801F019
:1031F0003FFC2368022B13DD2A4A2B492B4801F0A0
:1032000037FC334801F034FC2368022B08DD2846E4
:1032100000F0EAFE2368022B02DD0A200CF07FFB9F
:103220002C4A2B68002113606B682B48536001F017
:1032300029FD4FF0FF3009F025FD23680546022BDC
:1032400013DD184A1849194801F012FC234801F00F
:103250000FFC2368022B08DD284600F0B5FE23682A
:10326000022B02DD0A200CF05AFB01F0BBFB1C48CC
:103270000BF09AFE0AF01CFF01F08AFC04460AF0EB
:103280001DFF002CF8D10CF03AFBF5E72C060020CE
:10329000B0032100F8042100183C0020641C002029
:1032A0004C06002083062100880621008D0621009F
:1032B0009C0621007C042100D2062100E1062100A9
:1032C000EC062100F7062100110721004607210026
:1032D00053072100FC35002060070020680721000B
:1032E00074042100E8042100024B1868B0FA80F051
:1032F0004009704700B708404FF40042084B10B532
:10330000C3F89021C3F89020BFF34F8FBFF36F8FA6
:10331000044C206818B101F0CDFC0023236010BDDF
:1033200000E100E058080020064A136843F0020359
:103330001360536843F002035360936843F0020341
:103340009360704748200D4007B50C4800F0F2FE2E
:10335000FFF7EAFF0A4B1A6842F002021A600022E5
:103360000192019A0F2A06DD1A6822F002021A6001
:1033700003B05DF804FB019A0132F1E7E932200065
:1033800054200D40064A136823F00203136053686B
:1033900023F002035360936823F0020393607047A5
:1033A00048200D40F8B503880546BBB1452B27D111
:1033B00088291BD1144B1C68B4B1231D9A421DD11E
:1033C000214611480CF096F9104E62693768326058
:1033D000A2690AB1E0699047376005E00A4B1C68B2
:1033E00034B901220A4B1A7045232B8001200AE0D0
:1033F000A168201D0BF038FE2468F1E72468DBE7A4
:10340000002303800320F8BD5C0800202830002042
:10341000832300200021024B0248196001F032BCD6
:103420005C0800201C06002070B50446E3610B4BCD
:10343000049D1B78C4E905526BB1094D094B2E68F8
:10344000201D2B600BF010FE2E602146BDE8704061
:1034500005480CF062B9A160F7E700BF83230020A4
:10346000283000201C0600205C08002070B5094BA5
:1034700004461B783BB1084D084B2E6804302B6086
:103480000BF0FBFD2E602146BDE8704004480CF0B7
:1034900044B900BF83230020283000201C060020F0
:1034A0005C08002010B5084B04461B7843B104307B
:1034B00000F0C8F82146BDE8104004480CF01AB9E5
:1034C000C0E90333F6E700BF832300205C08002037
:1034D00008B5084B01461B7823B10069B0FA80F0AB
:1034E000400908BD04480CF02CF980F00100C0B27E
:1034F000F7E700BF832300205C08002010B50D4CC7
:10350000236813B90C4A136010BDFFF7BFFD226892
:10351000D2E900310B441B1A92681AB91844064BC1
:103520001860F1E7D2E900142144091A8B4228BF40
:103530000B46F1E76408002060080020014801F014
:10354000B9BB00BF2C0600202DE9F84303880546CF
:1035500053B1592B48D1872921D1002024490B6828
:1035600063B918B10B6001E0214A136059230120AF
:103570002B80BDE8F88301203346F1E7D3E90264EC
:103580009442F8D000B10B6019460B4689680029B7
:10359000ECD0C8689042F8D189689960F4E7822934
:1035A000E4D1134F4FF00009B84600263C68002CC8
:1035B000DCD020460CF0D7FB98B122468821E06889
:1035C00001F038FB58B9A368E0602EB1B360C4F8CD
:1035D0000890FFF793FFE8E7C8F80030F7E7FFF738
:1035E000ADFF2646A468E2E7002303800320C0E77E
:1035F0006408002010B50446FFF7A0FFE3680B4AFB
:103600000BB1136833B90A4B1B68E360136814608D
:10361000A36004E0A34206D1054A1268DA60BDE85F
:103620001040FFF76BBF9B68ECE700BF6408002009
:1036300028300020024B1868003818BF012070475E
:103640006408002010B50B4A04461368834208D171
:1036500083681360FFF752FF0023C4E9023310BDF3
:103660001346002BF8D09A68A242F9D1A2689A605A
:10367000F0E700BF64080020014B1888704700BFC6
:1036800028080020014B1880704700BF2808002040
:1036900013B500210446019170B101AA10300BF05E
:1036A000FEFC019B43B1074AA38B12889A4206D0C5
:1036B0004FF6FF72934202D0002002B010BD0120ED
:1036C000FBE700BF28080020F8B50E461546044663
:1036D00008B90020F8BD407E40B1022804F108017D
:1036E0000CBF022708270BF075FD28B146B10F4922
:1036F00030460BF0EAFF03E0082FEAD1002EF7D1A5
:10370000E07D38B10228214614BF082602260BF0BE
:1037100061FD28B145B1054928460BF0D6FF03E00D
:10372000082ED6D1002DF7D10120D3E77C0521004A
:103730002DE9F043012906468846144687B003DC8C
:10374000002007B0BDE8F08303A90BF0DDFD03AB5B
:1037500003CB1B88206123839DF811306161002B0E
:1037600047D0B71C02AA01A903A80BF098FC9DF84A
:103770001350002D4ED0029B2BB17A7817F8023BE4
:1037800003EB02239BB2022DA38336D13D46204694
:1037900032490BF09AFF7B78237015F8023B637077
:1037A0009DF81590B9F1000F4ED0019B002B38D039
:1037B0002F466A7817F8023B03EB0223029A9BB26A
:1037C000E38302B9A383B9F1020F2ED13D46234909
:1037D00004F108000BF079FF7B78237215F8023BA7
:1037E0006372A81BA8EB00038045C4E90E53A7DB56
:1037F000A7E7B378F71CA376B4E7032D0FD107F141
:1038000008052B46621E13F8011D9F4202F8011F96
:10381000F9D1C5E7204611490BF057FFA5833D4676
:10382000BEE7A38B2F46E383CDE7B9F1030F13D196
:1038300007F108052B4604F1080213F8011DBB42ED
:1038400002F8011BF9D1CCE7044904F108000BF0A0
:103850003CFFA4F81E90C4E73D46C2E77C0521006A
:103860002DE9F0470646144612B94FF0FF3073E0D9
:103870004FF0000C0346E1466546DFF848A282F8A7
:1038800003C021B9981BBCF1000F65D145E00129A7
:10389000EBD99846587818F8022B8F1E42EA00227E
:1038A000BCF1010FFFB24FEAD23038D0BCF1020FA9
:1038B00054D0BCF1000F40F003810028D5D102F0B4
:1038C0007F05C2F3C7127E2A1CD07F2A21D0AF42C7
:1038D000CBD31E2AC9D1022DC7D1DA789B7843EA0F
:1038E0000223D90BA17019051AB246BF43EA0A0395
:1038F0001BB2C2F30B0323807F1B844608EB050336
:10390000F9B2BEE7002DB0D1A8EB0603E3700120A9
:10391000F2E7002DA9D1A8EB0600E0701CE000281A
:10392000A3D0C2F30A05C2F3C322052A07D00F2A87
:103930000ED0012A99D1A94602200025DCE79A7809
:10394000C92AD9D1033323656B1EA4F85430D3E7B9
:10395000002D8AD1A8EB0600BDE8F087B9B2002897
:1039600040F08980D5B28D42C2F306223FF67DAF8A
:103970001B2A1AD01C2A66D01A2A7FF476AF062D8D
:103980007FF473AF9A78A260D97842EA0122A260EC
:10399000197942EA0142A260597942EA0162A260C1
:1039A0009A792273DB7923742CE0002D3FF45DAF0C
:1039B0009A783AB3012A7FF458AF987904283FF7F0
:1039C00054AF421C02EB820295427FF44EAF0122BB
:1039D00084F82A20DA78073384F82B2013F8021CA5
:1039E00013F8032C42EA01220021A28513F8012CCE
:1039F00084F82E2004F13002884203F1050302F11D
:103A000006020ADCAB1CA9EB0309B9F1000FFFF6B3
:103A10002CAF3FF47CAF02206EE713F804EC13F8F0
:103A200005CC01314CEA0E2C22F806CC13F802EC3E
:103A300013F803CC4CEA0E2C22F804CC13F801CC7A
:103A400002F802CCD8E7012D02D0192D7FF40DAF7A
:103A50009A78192D6274D5D104F1120103F118007E
:103A600093F804C0DA78023342EA0C22834221F848
:103A7000022BF5D1C6E7C2F30A058D42C2F3C32279
:103A80003FF6F3AE092A7FF4F0AE002D3FF4EDAE21
:103A90009A78012D84F84820B4D0D97A9A7A42EAEB
:103AA0000122042AA4F84A20ACD802F10C018D426C
:103AB000A8D103F10C0104F14C000BF0F7F8A1E7D9
:103AC000604619E700F0FFFF30B591B005464FF6AC
:103AD000FF74FFF7D1FDA04204D14FF0FF34204620
:103AE00011B030BD4022002168460BF0BFF900F054
:103AF00033FF6A46014617480BF073FD00F02CFFB8
:103B0000F8B1ADF800400C2000F01EFF014602A8FD
:103B10000BF0DBFD00F042FE0E9000F02DFE0F904A
:103B200068460BF066FB0446002DD8D000F068FE16
:103B30000028D2D000F01CFE014668460BF0A1FB25
:103B4000CDE70D2000F000FF014668460BF0BDFDFB
:103B5000D9E700BF2D4920002DE9F8430F46012386
:103B600000F0070103FA01F64FEAD00917F00C0341
:103B70006FEA0605DFF8A4804FEA093417D154F83C
:103B800008302B4044F8083017F0030230D1484683
:103B900000F0C4F83A0654F808302FD42B4044F80B
:103BA00008301B4AA3581D40A550BDE8F883042BDC
:103BB0000BD1184AA3582B40A3500432A3582B40D2
:103BC000A3500432A35833430CE0082B0CD1114A04
:103BD000A3582B40A3500432A3582B40A3500432C7
:103BE000A3582B40A350CFE70C2BCDD1094AE5E7D2
:103BF000022ACCD0012ACDD10422C8E7334344F8AD
:103C000008300120044B00FA09F01860C9E700BF32
:103C100020940D4004940D4000E100E010940D400C
:103C2000014601480BF079BD6808002038B505460B
:103C3000054B1C6804B938BDA068284002D06368F1
:103C400003B198472468F5E7680800200022014B7B
:103C50001A607047680800202DE9F0410546DFF83A
:103C60003C8000F0F3F90B4B2E03F75856F8084050
:103C7000ED00EC4047EA0400C0B2A840FFF7D6FFD1
:103C8000E4B2054BFFB2AC40F75046F80840BDE83F
:103C9000F08100BF18940D401C940D4018970D4002
:103CA000134B1B783BB101F52011124B2731013822
:103CB000994217D17047104A1278122AF3D10F4A4D
:103CC00012784B2AEFD108448B4200DB704703F592
:103CD0002012032BD4BF2C3224321278013300F887
:103CE000012DF1E711F8012900F8012FE0E700BFED
:103CF0002B002800270028002A002800290028007F
:103D0000034B044A1A60044B803A1A60704700BFA4
:103D10006C08002080400D4070080020034B01EB30
:103D2000C0011B6843F82120704700BF6C080020C9
:103D3000034B01EBC0011B6843F82120704700BF13
:103D4000700800200021F0B50125FF260F46104C19
:103D500040FA01F3DB0711D5227894F801C0D308AB
:103D60001B0303F1804302F0070203F5592305FA10
:103D700002F2BCF1000F07D043F822700131042990
:103D800004F10204E4D1F0BD43F82260F6E700BF7D
:103D9000A7072100F0B500210126FF270E4C40FAAD
:103DA00001F3DB070ED522786578D3081B0303F1F6
:103DB000804302F0070203F5592306FA02F23DB1EF
:103DC00043F822700131042904F10204E7D1F0BD67
:103DD00043F82250F6E700BFA7072100F0B4002106
:103DE00001260D4F0D4D0E4C17F811300131DA0838
:103DF0001203505903F0070306FA03F320EA030005
:103E000050511059042943EA00031351ECD1F0BC7E
:103E10000F20FFF7BFBF00BFA707210020940D4070
:103E200000940D4010B50948FFF720FB084800F04A
:103E3000E3FA0146064C01B910BD0B7A20465B0837
:103E40000B7200F0B3FA0146F5E700BF0430002022
:103E50003C060020014601480BF001BD3C06002055
:103E6000F8B531F0020307460E46154601D0062983
:103E70002DD139461B480BF0F2FC044628BB36BB5B
:103E8000334608223946174800F004FB0446F0B1D7
:103E900047F6FF73C380FFF7F9F8237A20602B44BD
:103EA000102BA8BF10232046022E237208BF0C350A
:103EB0000BF0F9FBA18800284FEAC51514BF0A22B0
:103EC0001922ADB221B9A58001E0062EE3D1F8BDDB
:103ED0005543C2F1640301FB03556423B5FBF3F5BD
:103EE000F1E700BF3C06002038B50546042000F08D
:103EF0001DFD294604B21C480BF0B1FC034648B92D
:103F000008222946184800F0C5FA034640B347F690
:103F1000FF72C28047F6FF71B3F906208A4208D0CB
:103F20000A2044435A2000FB0244642294FBF2F42A
:103F300024B299882246DC8091B947F6FF718C4201
:103F40000FD05A3212B222EAE2721E2AA8BF1E22F3
:103F50001E21D201B2FBF1F202F5807292B29A8078
:103F600038BD4FF48072FAE73C06002038B50848A7
:103F700000F042FA0446064D04B938BD21462846F1
:103F800000F0E0FA2146284600F010FA0446F3E774
:103F90003C06002007B50021074800F0EFF9074B69
:103FA0004FF4E1311B68064A009306480023FFF7EF
:103FB0003BFA03B05DF804FB3C06002028300020EB
:103FC000253E20000430002000B58BB00246282199
:103FD000684609F0EBFF6946024800F049FD0BB066
:103FE0005DF804FBAF07210070B5054688B90A48A3
:103FF000BDE8704000F03CBDE30702D42E200BF07A
:104000008EFC295D3046013400F032FD082CF3D1DE
:1040100070BD0024014EF4E7B2072100C107210062
:10402000084B19461A68D002FCD4074B1A6822F4D0
:1040300080321A600A68D203FCD41A6842F4003253
:104040001A60704704200D4000200D4010B50A4C46
:10405000236898070ED0094B1A4619684901FCD409
:1040600013685B01FCD5FFF733F8FFF7D9FF23682E
:104070000023236010BD00BF58200D4004200D40D8
:1040800038B5264B1C6814F03F0414D1244D55F864
:10409000043B23B1984770B10134052CF7D1214D71
:1040A0002B7843B102F068FE044602F06BFE201A42
:1040B000092800D90CB930BF27E01B4B1A6822F43D
:1040C00000321A60194A11461068C002FCD41A68FE
:1040D00042F480321A600B68DB03FCD502F052FE1A
:1040E000241A092C03D8BDE83840FFF799BF632C88
:1040F0000F4C0BD92B78022B08D1236000F08EFDDA
:1041000030B1FFF78DFF0023236038BD0123F4E7B2
:1041100002F032FE0028F4D02368CCE7488608403D
:10412000340900208423002000200D4004200D408D
:1041300058200D40074A10B50023144652F8041BBE
:10414000814202D011B944F8230010BD0133052B80
:10415000F4D1FAE7340900200022054B1A60054A21
:10416000136943F0040313610122034B1A70704773
:1041700058200D4000ED00E08423002008B500F039
:1041800015FE014B187008BD85230020034B062047
:1041900019784A1C1A7000F0C3BB00BF85230020A9
:1041A000F8B5FEF773FF114D074600242E460C208C
:1041B00000F0CAFB29460BF08DFA78B1062000F01A
:1041C000B5FB06EB0414237B83420CD1A068381A9C
:1041D000B0F5206F8CBF00200120F8BD0134102CF9
:1041E00005F11005E3D10020F7E700BF48090020E2
:1041F000F8B5184D00242E460C2000F0A5FB2946EA
:104200000BF068FA013418B9102C05F11005F3D140
:10421000651E06EB0413A3F110077DB9062000F01C
:1042200085FB3073FEF732FFB0600C2000F08CFB92
:10423000BDE8F840014607480BF047BA3C46013D4F
:10424000203B224618685968083303C2BB42144613
:10425000F7D1E0E74809002030B1054B9B68C01A50
:10426000044B8010584370474FF0FF30704700BF39
:1042700050060020ABAAAAAA38B50B4D0B4B00285C
:1042800018BF05461C6814B94FF0FF3038BD2846EA
:10429000211D0BF01FFA20B12046BDE83840FFF782
:1042A000DBBF2468EFE700BF7C052100680A00201F
:1042B00008B502460BF0ACFA431C17BF044B0020B4
:1042C000185C13681CBF184100F0010008BD00BF56
:1042D000A62300202DE9F84304460E460027DFF808
:1042E000788058F8042BA2B1D2F80890B9F1000FE9
:1042F0000FD02046FFF7B0FF014610460BF07EFAC4
:10430000014605461046FFF7D3FF012801D1284694
:10431000C8470137082FE4D12046FFF79DFF002250
:10432000094B1A542046FFF797FF084B21461A54B1
:1043300007480BF0DFF92EB12146BDE8F8430548E8
:104340000BF02ABABDE8F883A623002086230020BC
:10435000680A002050060020480A002050B1036877
:10436000072B06D8044A52F823301B1A58425841EA
:1043700070470020704700BF480A002010B504466F
:10438000FFF7ECFF10B1A160012010BD054A1368D2
:10439000072BFAD8581C1060034A2360A16042F82A
:1043A0002340F1E72C0B0020480A0020F8B5054611
:1043B0000C460C270F4B9E68214628460BF028FA26
:1043C000431C14D007FB00F3F01800D0F058FFF79F
:1043D00043FF014628460BF011FA044628B1014676
:1043E0002846FFF765FF0028E6D02046F8BD0020EC
:1043F000EDE700BF5006002038B50B4B05461868A6
:10440000FFF72AFF014628460BF0F8F9044601465B
:104410002846FFF74DFF28B921462846BDE8384019
:10442000FFF7C4BF204638BD680A0020F8B50D4626
:1044300017460BF014FA044620B10024012007B1FE
:104440003C60F8BD2846FFF717FF0130F5D10E4854
:104450000BF0C6F90028F0D10C4B0D4E1D681DB9AC
:10446000201E18BF0120EAE72846FFF7F5FE335C5F
:1044700013B9291D14B90C462D68F0E720460BF03E
:1044800036FB0446F8E700BF50060020680A00200B
:10449000862300202DE9F3410D46074620B900246C
:1044A000204602B0BDE8F081224B01AA002908BFD6
:1044B0001D462946FFF7BAFF0028F0D02846FFF72F
:1044C000DBFE421C064625D11B4EDDF8048030463B
:1044D0000BF04EF9044688B9B8F1000FDFD0404622
:1044E000FFF7CAFE431CDAD00C23B46803FB004478
:1044F000002CD4D000212046FFF7ECFE21460F48C7
:104500000BF00BF92046FFF7A7FE29460646201DB3
:104510000BF0DBF8314638460BF070F904467A6848
:1045200000210AF0A3FC01232246394604480BF07F
:104530007AF9B5E77C05210050060020680A0020C2
:10454000A623002070B50A4604460D460023014606
:1045500005480BF068F9064600232A462146034821
:104560000BF061F9304670BDA623002086230020A1
:104570000A460123014601480BF055B98623002065
:104580000A460023014601480BF04DB9862300205E
:1045900008B50BF03DF9431C07D00C22044B9B6877
:1045A00002FB003000B1043008BD0020FCE700BF72
:1045B0005006002070B5054688B90A48BDE870402D
:1045C00000F056BAE30702D42E200BF0A8F9295DBB
:1045D0003046013400F04CFA082CF3D170BD0024B1
:1045E000014EF4E7B2072100C107210070B505466E
:1045F0000E460B4B1C680CB9204609E0012D08D172
:10460000A3680BB92468F6E7304698470028F9D02C
:1046100070BD002DF6D16368002BF3D09847F5E705
:10462000300B002030B5058804468FB0002D3AD0FD
:10463000362D58D12E4BDB68002B49D10AF066FC91
:104640002C4A05462C492D4800F012FA642395FBAC
:10465000F3F003FB105009F08BFE0022284B0AF008
:104660001BF80022274B09F037FD0AF0FDF8264B16
:1046700045B219882A46254800F0FAF92B46202130
:10468000234A06A80BF031FB224B02A85B6998472E
:1046900000B306A80AF058FC02AB82B206A91E4875
:1046A0000BF092FA0DE01D4804F0D8FE1C4B1B697C
:1046B000984740F2D2432A4619461748009504F01D
:1046C00021F94FF4A0610A480AF0CEFC362323807A
:1046D00001200BE0074A1349084800F0C9F91248C5
:1046E0000BF01FF9EDE70023038003200FB030BD6E
:1046F000340B0020C6072100880621008D0621000A
:104700000000244000003440641C0020D207210037
:10471000F00721007C042100440B0020D00421007C
:10472000F8042100FB072100FF072100014A024B8A
:104730009A6070470020200000ED00E010B50749A6
:104740000B88834208DB064C80B222880244181A88
:1047500008800120228010BD0020FCE7661C00209C
:10476000681C0020014B1880704700BF661C0020A9
:1047700000487047680B0020014B1888704700BF45
:10478000661C0020034A044B10781B781844C0B202
:10479000704700BFB6230020681C002008B5FFF753
:1047A000F1FF014B184408BD680B0020F8B50C4B15
:1047B00004461E780B4B1F88F519802D0DDC324600
:1047C00009490AF073FAFFF7E9FF344401463A4613
:1047D00020460AF06BFA2846F8BD0025FBE700BF2B
:1047E000B6230020661C0020680B002008B5FFF7E8
:1047F000C9FF024B1B88184480B208BD661C00200C
:1048000010B50146FFF7F2FF4318802B12DC431E60
:10481000094A1BB21A44481C002B05DA074B1878CA
:1048200001440120197010BD12F80149013B1454D4
:104830001BB2F1E70020F6E7680B0020B62300204A
:1048400038B5094D094C1822002109480AF00EFB21
:10485000294620460AF039FF294604F10800BDE840
:1048600038400AF032BF00BF7C052100203C002008
:10487000303C00200023044A1380044A1380044A79
:104880001370FFF7DDBF00BF681C0020661C00200E
:10489000B623002038B50C460546FFF7EBFF802C09
:1048A00028BF80242946224603480AF0FFF9034B1B
:1048B00020461C8038BD00BF680B0020661C00200D
:1048C00010B5094B03F1180253F8044B934240F81A
:1048D000044BF9D1054B03F1100253F8040B93423A
:1048E00041F8040BF9D110BD303C0020203C0020E1
:1048F00010B5094B00F1180250F8044B904243F8F0
:10490000044BF9D1054B01F1100251F8040B91420F
:1049100043F8040BF9D110BD303C0020203C0020AE
:10492000014B23F810107047303C0020014B33F846
:1049300010007047303C0020024B0C3803EBC000E5
:104940000AF0C3BE203C0020024B0C3803EBC00031
:10495000704700BF203C0020014902480AF0BABE5F
:104960007C052100283C00204FF48032084B10B514
:10497000C3F89021C3F89020BFF34F8FBFF36F8F20
:10498000044C206818B100F095F90023236010BD95
:1049900000E100E0E80B002008B5002007F0C8FEA9
:1049A000012007F0C5FE0D49002007F08DFF02F041
:1049B0003DFB002000F00CFA07F09CFFFEF7C4FC62
:1049C000FEF7E0FC08210648FFF76AF9FDF796FDBF
:1049D00062B6BDE8084002200AF05BBFE56F200028
:1049E000183C002073B51A4B1B68022B08DD1949CF
:1049F000194A1A4800F03CF819491A4800F038F8EA
:104A000068460821FFF74CF9174E9DF806309DF8CF
:104A10000750F46A45EA03254AF6CD310220A04743
:104A200029460320A0471A210120A0470822736BC2
:104A300069460C20984704F015FEFDF727FC00217D
:104A40000A4800F01FF904200AF023FF02B070BDED
:104A50004C060020880621003A0821008D0621001E
:104A6000430821005B082100B0032100F406002068
:104A70000FB407B504AA52F8041B0448019204F0CD
:104A8000A5FE03B05DF804EB04B070476C0600208F
:104A900038B5836804460D469BB10A48046002207D
:104AA000A07304F10C0098470238012801D9832D26
:104AB00005D121462046BDE8384000F005B8012365
:104AC000A37338BD28300020F8B504461A4D2B6872
:104AD000A34203D003B9F8BD1B68F9E7002CFAD054
:104AE000164EA37B37684BB1A3683BB18C4205D00F
:104AF00000228321346004F10C0098472B68A34204
:104B000006D123682B60A37B53B93760E3E71346D4
:104B1000002BF8D01A68A242F9D122681A60F2E795
:104B20000023A3732D68002DEFD02246872128464D
:104B30000AF0EFFEF6E700BF243000202830002006
:104B4000002238B50125084B1A70084B1C6804B9BF
:104B500038BDE37B2BB1002282212046E581FFF79F
:104B600097FF2468F3E700BFBA2300202430002019
:104B7000034B1878FF2816BF421C80201A7070471C
:104B8000B82300208A22014B1A707047B8230020F6
:104B90002DE9F0411C4D2B780BB1FFF7D1FF1B4CD9
:104BA0002678AEB10C221A49DFF86CC00B78013EB2
:104BB0005A430CEB0200077A0133406803F01F03ED
:104BC0005CF802800B70267098B9124B1E682EB9E3
:104BD000287823781844C0B2BDE8F0812B780BB157
:104BE000FFF7AEFF3046424639460AF092FE36687D
:104BF000EDE7812F08BF01234246394608BF837382
:104C00000AF087FEE4E700BFBA230020B9230020A2
:104C1000B723002024300020EC0B0020034B187831
:104C2000034B1B781844C0B2704700BFBA23002062
:104C3000B9230020F0B50B4E3378202B0FD00C2574
:104C4000094C0A4F24781C4404F01F046C433D199E
:104C500068600020013329723A513370F0BD0120A1
:104C6000FCE700BFB9230020B7230020EC0B002095
:104C700038B5034C25680AF04CFE256038BD00BFEE
:104C80002830002010B40A4C0A4621680B468342A3
:104C90000CD04BB950B1016001212060817310BC70
:104CA00081218381FFF7E4BF1B68F0E710BC7047E8
:104CB0002430002038B1837B013B012B9FBF0123AF
:104CC000014AC37313707047BA23002008B5044823
:104CD0000AF03EFDBDE8084002480AF039BD00BFB9
:104CE000800600207406002001480AF079BD00BF4C
:104CF0007406002038B50E480AF03AFD054650B15A
:104D00000C480AF035FD0446286030B929460848A9
:104D10000AF042FD2546284638BDFFF747FD04F15D
:104D20009A01A4F8800004F18200FFF7C9FDF2E7C0
:104D3000740600208006002010B50146044607488E
:104D40000AF040FD48B1216805480AF025FD2146DA
:104D5000BDE8104001480AF01FBD10BD74060020D8
:104D60008006002010B50146044609480AF02AFDD5
:104D700068B12468B4F880102046FFF78BFD04F179
:104D80009A0104F18200BDE81040FFF7B1BD10BDEB
:104D90007406002010B50146044603480AF012FDCF
:104DA00000B1206810BD00BF74060020064A1368D9
:104DB00043F004031360054B186804331B6840EA92
:104DC000032080B2704700BF00700D4014700D408A
:104DD00010B5174A136823F00C0313600122154B1A
:104DE0001A601A68012AFCD10822134B13491A6071
:104DF000E32203F505731A601A460B68DB07FCD53E
:104E00000F4C102100232068013900F0010043EA13
:104E100000034FEA43039BB2F5D1002BF1D00949BF
:104E2000180A03F0FE0308600B60EF23136010BD47
:104E300000700D40A8200D4024860840648608407C
:104E40009C86084014700D4070B5164E05463378A8
:104E50000C46C3B907F0AEFE134BADB91A4600F1CC
:104E6000100150F8045B884242F8045BF9D184B920
:104E70000E490D480BF077F9012200210A4807F08E
:104E800041FF0123337070BD2A681A606A685A6056
:104E9000EDE7214651F8082F9A604A68044B5A60A2
:104EA000EAE700BFCB230020BA210020FC35002018
:104EB000C221002013B5002100240846FFF7C4FFDB
:104EC0002246154B93F8201059B193F8211001296F
:104ED00007D1197CFE2902D1597C802901D003F128
:104EE00010040132032A03F11C03EBD1204607F022
:104EF000B3FE04B968B101F0C1FE40230246214669
:104F00000020009300F012FB00F05CF9002002B0DA
:104F100010BD4FF0FF30FAE784340020044B187BBB
:104F200028B1B3F84E00DB8AC31A58425841704783
:104F30002C3000202DE9F84390461C4CDFF870908F
:104F400007460E464FF4B072002120461D4609F078
:104F50008DFFB9F82030434502D00020BDE8F8832A
:104F600028469DF82420089901F0D2FE0028F4D0AC
:104F7000F023E373012323734FF0FF33E364A4F8BA
:104F800050304FF2F003A4F8583033466773C4F83A
:104F9000089006F110051C34224618685968083339
:104FA00003C2AB421446F7D10120D7E72C300020D2
:104FB000BC06002013B5437D0446012B02D9002016
:104FC00002B010BD90F851300146019390F8503076
:104FD0000093028A00F13C03007EFFF7ABFF00283C
:104FE000EDD0144B627D618B9A73626D19821A60E9
:104FF000226A5A61227F9A74627F1A76E28B5A8300
:10500000002283F85C20A17D83F85410217D83F871
:105010005310E17D83F8552083F852109B681B687C
:105020009847054801F038FC01F018FD01F050FDEB
:105030000120C5E72C3000206008210030B50A4A65
:10504000137B7BB168B1034602F11C052C322C4660
:1050500003CC944218605960254603F10803F6D149
:10506000012030BD1846FCE72C30002010B5FFF7BA
:1050700055FF104C60B994F858200020531CDBB247
:10508000120658BF03F07F0384F8583001F0AAF8E5
:10509000FEF76CFF01F06AFA08F088FB01F040FDB2
:1050A00094F841305B0602D5034801F01DFE002351
:1050B000237310BD2C300020583000200322024BF7
:1050C00083F85C2001F04EBD2C30002008B50F4B5A
:1050D0001A7BD2B19A6C511C17D0824208D8002298
:1050E0009A64032283F85C20BDE8084001F03ABDD1
:1050F000121AB2F5967F9A6407D2586C28B10AF05A
:1051000005FDBDE8084000F065BF08BD2C3000205B
:1051100008B5074B0146187B48B193F8402003F1CE
:105120001C00D20809F094FDB0FA80F0400908BDD7
:105130002C30002010B50A4C237B83B1FFF7EEFE24
:1051400008B984F85C00A3681B68984701F00EFA60
:10515000044801F0A1FBBDE8104001F003BD10BD03
:105160002C3000206508210008B5FFF7D7FE88B174
:10517000094B0A4893F852104A1CD2B2090658BF8C
:1051800002F07F0283F85220F022DA73BDE8084073
:10519000FFF7D0BF08BD00BF2C30002072082100EF
:1051A000074B9A7B187B1AB9003818BF012070474B
:1051B00028B193F85C00012894BF002001207047BB
:1051C0002C3000202DE9F041454C237B002B00F0D2
:1051D000848004F16400B4F84E50FEF763F994F84B
:1051E0005C30032B12D1002001F098F94FF6FF73C9
:1051F0009D42A4F84E3004D03A4801F04DFB01F036
:1052000067FCA368BDE8F041DB691847FFF786FE3D
:1052100007460028F5D1666C01F0CEF901F07EF961
:10522000606C01F025F9DFF8C880A4F84E00D8F8CA
:105230000000FFF7E1F8054688BBB4F84E201EB128
:10524000B4F84C30934201D9A4F84C204FF6FF71CA
:10525000B4F850308B420DD08A420BD0D31A002BB9
:10526000B8BF5B42B3F5007F04DD1F48A4F85020AF
:1052700001F012FB94F85B30002BC2D0636C13B3C7
:105280003EB90123194884F85C3001F005FB01F0B8
:105290000DFC01F02BFB002384F85B30B1E72846BE
:1052A00001F0E6F8B4F84E3083420AD92B6813B9FE
:1052B000FDF7ECFE28602946D8F80000FFF776F8E5
:1052C000B9E72F60F7E7074884F85C3001F0E4FAAB
:1052D00001F088FA01F0FCFBDDE7BDE8F08100BFDA
:1052E0002C300020800821008E082100A608210013
:1052F000E00600202DE9F041544C0746237B0D4683
:10530000F3B1627B2B7E9A4220D11022294650486D
:1053100009F09EFCD0B96A8AE38A9A420CD3E97DEF
:1053200094F852000AF02AFC6B8AB8B1E28A9342E0
:1053300002D1484801F0B0FABDE8F041FFF742BFA2
:10534000FFF7ECFD20B1237B002BDAD1BDE8F08123
:105350002846FFF72FFE0028F5D1F7E74FF6FF723A
:10536000934218BF94F8573094F852101CBF013381
:1053700084F85730E87D0AF001FC50B1B4F84E20B3
:10538000E38A9A424ED1EB7D334884F85230FFF7DE
:10539000EBFE2A46012138460AF05CFB0028CBD000
:1053A000384601F0FBF8064600284CD090F80680FD
:1053B000384601F0F3F868B938460AF09AFE01461B
:1053C0000028B9D025482B4601220068FFF762F873
:1053D0000028B1D06B8A83806B7E8371A36C1BB174
:1053E0003EB1636C9E4204D14FF4F073628B534321
:1053F000A364A37B002B9FD0002E9DD0636C9E42A4
:105400009AD14146687E0AF0B9FB002894D0E27B2D
:10541000531CDBB2120658BF03F07F03E37301F0A5
:1054200065FA89E7FFF77AFD06460028B1D101F059
:1054300077FB304601F072F82846FFF7BBFD0848BD
:10544000FFF778FEA5E74FF0F008B1E72C30002019
:1054500048300020B1082100CD082100E0060020DE
:105460007208210010B50A46044621B1BDE810407B
:10547000064801F011BA03210AF0ECFA20B12046E7
:10548000BDE8104000F0C2BD10BD00BFE60821001D
:1054900038B5054691F823000C4668B90A462946F6
:1054A0000AF08FFE94F92530002B14DA2846218C5F
:1054B000BDE8384001F032BAFF2816BF064B4FF066
:1054C000FF335B8B0A4618BF43432946002008F090
:1054D000D9F80028E6D138BD2C30002070B5114C29
:1054E0000D4694F8591006460AF048FB08B184F8B6
:1054F000596094F85830B34213D194F85C306DB2CF
:10550000012B07D1002D05DB0223074884F85C300E
:1055100001F0C2F901F024FA002DBCBF032384F886
:105520005C3070BD2C300020F40821002DE9F347D9
:10553000234C9946237B06460F4690469DF828A0AB
:10554000002B3BD0102204F11C0009F081FB98BB1A
:1055500094F852305D1C1B06EDB201D405F07F05B6
:10556000FFF784FD4346012239463046CDE9009AD3
:10557000FFF7E0FC134A012362611E22A373227627
:1055800040F608433C222382628300238022A374D6
:10559000A4F84E2084F853304FF0FF32A4F8543072
:1055A0000223094884F85250A26484F85C3002B0A7
:1055B000BDE8F04701F070B9F025D1E7F025D1E75B
:1055C0002C30002000048000FE0821004FF4B0724F
:1055D0000021014809F04ABC2C30002010B5124BC4
:1055E0009A79D2B993F82A10632916D193F8290031
:1055F000A8B993F82B20042A10D10C4A117B81B151
:10560000547B93F82D10A14208D1B2F84E0083F8D4
:105610002D10020A42EA0022DA85012010BD104650
:10562000FCE70846FAE700BF043600202C300020D3
:1056300070B51C4B04462B2219881B480AF077FED4
:1056400006461A48FFF764FD08B9002070BD1849E6
:10565000002007F0DFFF15490546002007F0DAFFBC
:1056600016B1B378032B06D00028EED0002DECD075
:105670004369AB42E9D122460C4D05F110062B4699
:1056800003CBB342106051601D4602F10802F6D10F
:1056900048F2FE032380002301206380A380E3807F
:1056A000D4E700BFF4350020043600201C3600206B
:1056B000483000202DE9F04F704B2B22198870489C
:1056C0008FB00AF034FE044608B9002084E08378E5
:1056D000032BFAD190F803A0BAF1000F7BD0057923
:1056E00042792B090293C3F110030193437805F02B
:1056F0000F050133DB00DBB2A3EB12132B44019A3D
:10570000183B93FBF2F30133DBB29A450393DCD8E9
:105710005C4E0DF1280C96E80F008CE80F00237901
:10572000E1781A0903F00F03C2F1100B012908BF39
:105730001A464FF00009607867790130C000C0B2A6
:10574000A0EB17101844183890FBFBF00CEB020389
:105750000593C2F1100306934B460130C0B2471ABD
:10576000FFB20BFB07F80490A6F11800261A1036BA
:10577000B21A08F1080807900892049ABA422ED883
:10578000029A039BBAF1010F18BF1546A3EB0A0357
:10579000019ADBB25A43134608331E44761BB6F512
:1057A000A06F92D8E618374B0AAF0FCB87E80F00EF
:1057B000079B05F118000344C5F11008184642463E
:1057C000314609F073FA42463046791909F06EFA0B
:1057D000E378013BE37001200FB0BDE8F08F09933F
:1057E000089B03EB0802B2F5A06F3FF66EAF069A76
:1057F00004EB0801059809F059FA0AA807F02CFAF9
:10580000099B50B109F101095FFA89F96BB9B9F146
:10581000010F3FF65AAF012307E00AA8099307F0EA
:10582000BFFA099B0028EDD103469DF82820FF2AE6
:105830003FF44BAFBDF82820E2B9BDF82C00BDF80D
:105840002A20BDF836100243BDF82E000243BDF8F1
:1058500030000243BDF832000243BDF83400024379
:1058600092B251EA02003FF430AF1AB9B1F5807F2D
:105870003FF42BAF0137FFB2D8447EE7F435002068
:10588000043600201C36002000292DE9F04139DBC8
:10589000CA0737D44378002B34D140F26343425ACD
:1058A00045189A422ED1194F3B7B5BB37A7BEB783C
:1058B0009A4227D1AE78B30624D4AB880C201C0AB8
:1058C00044EA0324124BA4B2D3F80080FFF73CF85B
:1058D0000146404609F0C3FFB7F84E70A978A742C9
:1058E00094BF00270127F609BE42C1F380131CBFF5
:1058F00041F04001A97086EA07022146BDE8F04167
:105900000AF07AB80020BDE8F08100BF2C300020FA
:10591000E00600202DE9F743284D01232988284877
:105920000DF107020AF0C6FC254F0446002840D1BD
:10593000012003B0BDE8F08329884846283989B2A0
:105940000AF0AFFC2A88E31B9A4221DDD21A2046D6
:10595000A11909F021FA98F800308DF807309DF868
:105960000730062BE4D0112BE2D03A2BE0D02B2BC2
:1059700003D07BB9A378632B0CD1237888F800304F
:1059800066780136F600704208F0AAFA0028D3D1F2
:105990000020CEE72988E31BC91A204600230DF119
:1059A000070289B20AF086FC04460028C0D080466F
:1059B000D5E7B94607F10608D1E700BFF435002066
:1059C000043600202DE9F04FDFF8288287B098F8E0
:1059D0000C30C3B148F2FE037F4E328B35469A42FB
:1059E00011D0337EFF2B0ED0FFF798FA0446002823
:1059F00000F0B880FFF78EFF06F11800FFF788FB74
:105A000006F1180908B901240EE04946002007F004
:105A100001FE07460028F6D0002008F11C0107F01F
:105A2000F9FD824620B90024204607B0BDE8F08F7A
:105A30004946002007F004FE0028F4D000264FF06D
:105A40000F087C69DFF8A0B1F3B200930CB1A24556
:105A50006ED1009BC8F1100B5C1EC8F1180304FB4B
:105A60000B34E6B214F0070418BFC4F108045B4B12
:105A700018BFE4B21A882644F6B29319B3F5A06FA2
:105A8000D1DC574B283A188828302B183044194657
:105A90002844019309F080F9019B32461846002101
:105AA00009F0E4F9AB7985F828302B23AB71B6F116
:105AB000080348BF06F1FF33DB1085F829300323C4
:105AC00085F82A30009B85F82B3008EB081385F801
:105AD0002C30230185F82D30424B341B1C44424BA3
:105AE00002AD9B69A84400937B699A450DD0394665
:105AF000009B2846A4EB0B0498475A464146204693
:105B000009F0D4F87F69002FEED13946009B284672
:105B1000984795E80F0089E80F00304608F0E0F953
:105B20002E4B2D481988283989B20AF0BAFB6AE74A
:105B30002146DBF8183002A8984700232B4A02A917
:105B400011F801CB12F8010B844504D0984506DA10
:105B50006469013678E70133102BF1D1F8E75FFA79
:105B600083F8F5E706F1080007F076F880B3204BDC
:105B7000F27993F806319A422AD1184D2A88B2F563
:105B80009F6F3FF651AF06F12801283A06F1300029
:105B900009F002F9B379B8F84E2086F8283040F2BF
:105BA00063437385130A43EA0223F38598F80D30A3
:105BB0000820B47186F8294086F82C4086F82D30EC
:105BC00008F08EF929883046283989B20AF069FB35
:105BD000FFF704FD044627E704360020F4350020D3
:105BE0005C2300202C3600207C0421001C36002081
:105BF000843400202C30002008B50A48037B63B1B0
:105C0000094B0A491B88407B2C335A185B5C98422D
:105C100003D1D1789078FFF761FCBDE8084008F027
:105C2000A5B900BF2C3000205C23002004360020E2
:105C30002DE9F0438FB02622002104A809F016F9BF
:105C4000434B444C1E88444B06F12C02D718217B51
:105C5000D25C8DF8322031B3617B914223D1E8468A
:105C600008330FCB88E80F00102200210DEB020053
:105C700009F0FCF8394B1D882C3DAD1BADB2032D4E
:105C800011D9237EFA788DF833307B78ADF8302047
:105C90008DF835305B060BD40426B54214DC404643
:105CA00004A9FFF7F5FB08F061F90FB0BDE8F08338
:105CB000132DF8D91022391D04F11C0008F0C8FF7B
:105CC0000028F0D11426E8E7BA5D344612B3731CFD
:105CD0009D42E8DDBB195B7802331E44AE42E2DC34
:105CE000052A19D0062AD8D1052BDCDD3A195279BC
:105CF000132B8DF83320D0DDA31D3B4404AC03F1FE
:105D0000100C224618685968083303C263451446CC
:105D1000F7D1C2E70123E0E7032BC4DD3A1992F87B
:105D200003908DF8349009F107094FEAE90909F168
:105D300004029A42B7D11022002108A809F096F86F
:105D4000211D4A46394408A808F0B0FFA5E700BF66
:105D50005C2300202C30002004360020F435002085
:105D60002DE9F0479CB05C22002105A809F07EF8DF
:105D70000123ADF8243040F60843864A864CADF83E
:105D80002E30864B0DF10408CDE90C2304F10803F5
:105D90000FCB88E80F00824A824B17881B882C3F64
:105DA000FF1ABFB2172F31D92C331D191B5D0221E9
:105DB0008DF82C306B7828468DF82B3009F03FFE9B
:105DC0002B79ADF8260023F07F028DF82820C3F34D
:105DD000C20203F007038DF82A306B798DF8292071
:105DE0008DF82D3005AC05F1080305F118062246A3
:105DF00018685968083303C2B3421446F7D118240F
:105E0000A74208DC404605A9FFF774FA08F0AEF88F
:105E10001CB0BDE8F0872B5DF3B1621C9742F5DD45
:105E20002A195678023604EB0609B945EEDC023B26
:105E3000062BEBD801A252F823F000BF5D5E2000D4
:105E4000BF5E2000FD5E20000D5E20000D5E200084
:105E50000D5E2000535F20000126E4E7052ED5DD0E
:105E60002B191A7993F803C0D00940EA4C008DF839
:105E70006900C2F3011002F00F0299788DF86B20CF
:105E80005A798DF868108DF86A008DF86C2049B148
:105E9000072909D1072EB9DD2846A11D09F0CFFD3C
:105EA000ADF86E004C46ABE70229AFD1072EADDD51
:105EB0009A79DB798DF86E208DF86F30F2E7072E36
:105EC000A4DD2B1993F802A0DB782846211D8DF85C
:105ED0004D308DF84CA009F09DFD0AF10702D2105B
:105EE000D31DB342129091DABAF1800F8ED804F12B
:105EF000080129440EA808F0D9FED3E7102E85D159
:105F00002B19DA78A11D8DF82E201A7928468DF8E4
:105F10002F205A798DF8302009F091FD04F1080105
:105F2000ADF83400284609F08AFD04F10A01ADF805
:105F30003600284609F083FD5B7BADF8240004F1B0
:105F40000E0128468DF8313009F079FDADF83200A8
:105F5000A8E7202E7FF45AAF2B199A78802A8DF863
:105F600064203FF653AFDB7804F1080128468DF832
:105F7000653009F04FFD10342C44189014AA04F138
:105F80001006134620686168083403C3B4421A46F9
:105F9000F7D187E7001E3C00043600200004800093
:105FA000F43500205C23002008B5084B1B7B43B16F
:105FB0000748017E0830A1F1FF0359425941FFF71C
:105FC00051FABDE8084007F0D1BF00BF2C300020D7
:105FD0000436002010B50446FFF7F4F80022084B01
:105FE00008491B882C335818427007485A54944269
:105FF00018BF2046BDE8104002239B2107F058B986
:106000005C23002004360020483C00202DE9F047A6
:106010008046FFF7D7F800F0CBFD18B1B8F1000FBC
:1060200000F0D180694B6A4D1B886A4A697B2C332A
:106030009C18995495F85230637000F0B9FD00280F
:1060400040F0B480B5F84E200221204609F0FDFC56
:1060500095F8532095F85430002A18BF8022A97B68
:1060600003F0070343EAC10313432371EB7B5A4E4A
:106070006371002304F10802A371E37106F11007B4
:10608000334603CBBB42106051601E4602F108024A
:10609000F6D100F08DFD002840F093802A78002A88
:1060A00000F08F800623022163766B78072A4FEA7F
:1060B0005300E076A8784FEAC31343EA0013E87868
:1060C000217643EA0003A276237772D161772046D6
:1060D0001E21EA8809F0B9FC20260423A3550E23CB
:1060E0004FF0000AA7197B702B7C2046FB706B7C5D
:1060F000AA8A3B71AB7CB11D7B7187F802A009F0C5
:10610000A4FC2046EA8A06F1080109F09EFCAB686F
:1061100020461A8C06F10A0109F097FC2B7E2046D6
:106120007B736A8B87F80CA006F10E0109F08DFCD9
:1061300095F8403006F1100943B3082204F809200D
:106140001E22BB7495F841302046FB747A7406F128
:106150001401EA6B09F06AFCEA6B06F1180109F018
:1061600065FC06F11C031D4A44F803A006F1200358
:106170001C4402F11005134603CBAB422060616062
:106180001A4604F10804F6D106F1300900F010FDBA
:1061900020B9134BB8F1000F08BF98464B46404654
:1061A000BDE8F04701229B2107F082B84FF6FF724D
:1061B0004AE7022A07D1AB796277A377EB79E377D5
:1061C0008AE7182689E7BDE8F08700BF5C23002036
:1061D0002C300020043600204830002058300020A9
:1061E000483C00202DE9F041074600F047FD2D4EC8
:1061F0000446706C09F08AFC0546FEF7E3FF337B2A
:10620000002B4CD0736C002B49D0002C47D0002DB4
:1062100045D0B37B002B42D0234B24491A88707B96
:106220002C3253185054002297420CBF1146802143
:10623000597096F858109A70D97005219A71802279
:1062400019711221DA712246597104F1100003F11B
:10625000080152F8044B824241F8044BF9D106225E
:106260001A761422124C5A76002203CCC3F81E0070
:106270002846C3F822109A76DA761A775F7750F8B4
:10628000082F9B21C3F826204268A4F10800C3F818
:106290002A20BDE8F0412E23022207F009B8BDE80C
:1062A000F08100BF2C3000205C2300200436002049
:1062B0004830002070B504460E461546FEF782FFB2
:1062C000094B0A491B880A4A497B2C339954981870
:1062D000002386704370C57004232046BDE87040DB
:1062E00003229B2106F0E4BF5C2300202C30002019
:1062F0000436002008B5074806F034FF064806F0CB
:1063000031FF064806F02EFFBDE80840044806F0BD
:1063100029BF00BFB0060020A40600209806002078
:106320008C0600200022014B1A7070472C30002090
:1063300070B5054609F0AFFB0B4B0446586C09F0ED
:10634000AAFB2B680646BF3443B1FCF79FFE2B68BF
:10635000C01AB0F5963F01D9002070BDB442B4BF59
:1063600000200120F9E700BF2C30002038B504469A
:1063700078B1094BDD8A09F08EFBA28853194FF6DC
:10638000FF72934228BF1346834238BF034698B238
:1063900038BD4FF6FF70FBE72C30002070B50D467E
:1063A000044648B309F094FB061E18BF01261DB130
:1063B000284609F08DFB40B92EB9002403E0284699
:1063C000FFF7B6FF30B1204670BD9EB10C4E726C27
:1063D000A242F4D0736C9D4203D12046FFF7A8FF80
:1063E00040B9204609F057FB0646284609F053FB02
:1063F0008642E8D32C46E6E70029DED02646D7E7DA
:106400002C30002010B500F02BF828B1BDE810406A
:10641000034B9B685B6918474FF6FF7010BD00BFC8
:106420002C30002008B50C4B0146D3F828218242BD
:1064300004BF0022C3F82821D3F80421824204BFFC
:106440000022C3F80421054B1868FEF77BF8BDE86D
:10645000084000F087BB00BF2C300020E006002081
:10646000024B0146186809F0FAB900BFE0060020A7
:1064700020B1044B9B685B6903B118474FF6FF706E
:10648000704700BF2C300020024B01461868FEF711
:106490007FB800BFE00600202DE9F8431D4E80467E
:1064A000357B45B11C4F00253868FDF7A5FF4FF639
:1064B000FF79044614B92846BDE8F8832046FFF763
:1064C000D7FF48451AD0F38A834217D8B28A3AB127
:1064D000B6F84C3013444B4528BF4B4698420DDC70
:1064E000B3682046DB68984740B1B8F1000F0BD184
:1064F000B368284621469B69984705462146386877
:10650000FDF754FF0446D5E7204609F00DFB0028AF
:10651000EED1F3E72C300020E006002070B50446F1
:10652000104D686CA0421CD00F4E214604F0C6FAF4
:10653000696C3068FEF724F821463068FEF718F8D9
:10654000686C09F0E3FA06F0C7FA06F0ADFA2046E7
:1065500009F0DCFA002106F0D5FA01236C6485F815
:106560005B3070BD2C300020E006002038B50A4DAD
:106570000020FFF7D3FF2868FDF73EFF044618B957
:10658000BDE83840FEF71EBE2046FFF74BFF214610
:106590002868FDF70BFFF1E7E006002008B509F0D9
:1065A0004DFD06F05DFA034B01461868BDE8084052
:1065B00009F055B9E006002070B5FEF7AFFC0646BD
:1065C00010B10024204670BDFFF766FF0446002886
:1065D000F7D009F0A9FA0C4D10B1C5F82861F1E720
:1065E000D5F828311BB9C5F8284100F04BFA6B6C7F
:1065F000A342E7D00120FFF74FFF18B96B6C002BC7
:10660000E0D1DEE70446DDE72C300020024B0349F1
:106610001868FDF7B3BE00BFE00600202564200027
:1066200008B5054BD3F8040109F070FA18B1BDE8BC
:106630000840FFF7EBBC08BD2C30002003480022C7
:1066400090F85C1100F59670FFF734BE2C300020F6
:10665000024B1B7B0BB1FEF709BD70472C300020AD
:1066600007B5044B1B6800930023FCF7DDFE03B065
:106670005DF804FB28300020F8B580264FF47A77C7
:10668000144C4FF4FA6594F8551006FA01F1B1FB79
:10669000F7F3B1FBF5F52366FEF788FB05FB00F188
:1066A0004FF6FF70B1FBF0F1236E29445B1A2366AD
:1066B000012304F1A400084AA4F85630FFF7D0FFE4
:1066C00094F8550006FA00F0B0FBF7F0BDE8F8408A
:1066D00004F0D2B92C300020DD66200010B5FEF7A2
:1066E0005FFD60B3164B93F856201C46CAB1FEF707
:1066F00015FC28B9A37C1BB194F857209A4206D206
:10670000B4F84E300020A4F85030FFF77FFC00238F
:1067100084F85630216E0B4A0B48BDE81040FFF755
:106720009FBF597C187C93F8552001448A42BCBF16
:10673000013283F85520BDE81040FFF79DBF10BD22
:106740002C300020DD662000D030002008B5FEF798
:106750002DFB4FF42071B0FBF1F303FB1101BDE8F9
:10676000084089B2024A034801F5A071FFF778BFDB
:10677000AD67200010310020012310B50A4C84F8C9
:106780005A30FFF7E3FF94F8583094F9582001335A
:10679000002AB4BFDBB203F07F03207E84F85830B8
:1067A000BDE81040FFF71EBD2C30002010B50B4C8B
:1067B00094F85A30207E013384F85A30FFF712FDE6
:1067C00094F85A30042B03D8BDE81040FFF7BEBF41
:1067D0000348BDE81040FEF7ADBC00BF2C300020E0
:1067E0000809210008B50B48FCF772FE80B1FEF7DE
:1067F000DDFA4FF47061B0FBF1F303FB1101BDE86A
:10680000084089B2044A034801F5F061FFF728BF48
:1068100008BD00BF0C0E00201D68200008B5FEF763
:106820007DFB88B9094B1A7B3AB15A6C2AB1B3F88F
:106830004E204FF6FF739A4206D10020FFF7CAFBA5
:10684000BDE80840FFF7CEBF08BD00BF2C300020D8
:1068500010B50F4C237B43B9FFF7C4FFFEF7B2FC22
:10686000BDE810400B48FCF701BE3C20FEF72EFCB3
:106870003C2006F069FF237B002BEDD0636C002BDE
:10688000EAD04FF6FF73B4F84E209A42E6D1E3E720
:106890002C3000202C0E002010B5FEF781FC90B1AA
:1068A000094C94F8553013B1627C9A420BD200F037
:1068B0007FF940B9637C84F8570084F85530BDE80F
:1068C0001040FFF7D9BE10BD2C300020054B1A7BBD
:1068D0003AB1C3F804010021034A03F1C400FFF7F1
:1068E000BFBE70472C3000202166200010B5094C37
:1068F000237B73B1A37B63B1FEF758FAC0F30801A1
:10690000054A04F1E40001F58071BDE81040FFF78D
:10691000A7BE10BD2C30002079672000F0B40D4ACE
:106920000D46117B034699B102F5967600F11007EA
:10693000344618685968083303C4BB422646F7D169
:10694000A2F85C510021F0BC034A0448FFF788BE5E
:10695000F0BC70472C3000203D66200068310020DC
:1069600010B50F4B1A7BD2B11C7EFF2C17D0598B60
:106970004C43FEF71BFA4FF4F053B0FBF3F202FB6B
:1069800013039BB2E40103F5F0539C4288BFE41A61
:106990002146BDE81040034A0348FFF761BE10BD21
:1069A0002C30002079672000103100202DE9F041C3
:1069B000FCF76CFB274D80462C7B44B1D5F8284171
:1069C0002CB9686C30B109F0AFF818B96C6C20467E
:1069D000BDE8F081FEF7EAF90325B0FBF5F505EB1C
:1069E0004505451B1C4FADB23868C5B1FDF704FD28
:1069F0004FF6FF760546002DE9D0284609F094F8B9
:106A000038B92846FFF734FD0CB1864201D9064655
:106A10002C4629463868FDF7C9FC0546EBE7FDF72B
:106A2000EBFC06460028D2D0304609F07DF860B96C
:106A3000304609F072F840B103681CB1A8EB0302BC
:106A4000AA4202D93446A8EB030531463868FDF75F
:106A5000ADFCE6E72C300020E006002010B5074C26
:106A6000237B4BB109F069F8054A014604F58470AF
:106A7000BDE81040FFF7F4BD10BD00BF2C30002072
:106A800055FB200010B5074C237B53B1FEF78EF960
:106A9000054AC0F3080104F58470BDE81040FFF713
:106AA000DFBD10BD2C30002055FB200010B5074C79
:106AB000237B53B104F18400FCF70AFD28B904F1EB
:106AC0008400BDE81040FCF7EDBC10BD2C30002068
:106AD00010B5094C237B6BB104F18400FCF7F8FC82
:106AE00040B104F184004FF41641BDE81040034A60
:106AF000FFF7B6BD10BD00BF2C300020516620004E
:106B000008B54FF4F051044A0448FFF7A9FDBDE869
:106B10000840FFF767BE00BF516820002C0E002020
:106B200010B50F4C2046FCF7BDFC04F12000FCF72B
:106B3000B9FC04F14000FCF7B5FC04F16000FCF77F
:106B4000B1FC04F18000FCF7ADFC04F1A400FCF7FB
:106B5000A9FC04F1D800BDE81040FCF7A3BC00BFBD
:106B6000903000200448037B23B10021034A6430A5
:106B7000FFF776BD704700BF2C30002037FB2000A8
:106B8000044B187B20B193F85C00003818BF01203B
:106B9000704700BF2C300020044B187B20B193F8C5
:106BA0005C00831E58425841704700BF2C300020C3
:106BB000014B1878704700BFCC23002038B50D4634
:106BC00004461022002108F051F92A7D2946073297
:106BD0002046D20808F06AF82046BDE8384001494E
:106BE00009F0C1BAFC35002008B540F2FF230D487A
:106BF0000380002343808380C3800381438183819A
:106C00004FF4D053C38106F05BF8FEF7DFFCFFF7CB
:106C1000FDFCFFF775FFFFF76DFBBDE8084006F0D0
:106C200083BD00BF483C002010B5094C237B012BDD
:106C30000DD1FFF715FC50B1D4F82831984204BFAC
:106C40000023C4F82831BDE81040FFF78BBF10BD0A
:106C50002C3000200B46024610B550B151B1064C05
:106C600003CC10600120516053F80C1F91605968EB
:106C7000D16010BD0846FCE7483000202DE9F843FC
:106C8000174D2E7B46B395F840602C35002E08BF7B
:106C900000250027134CF60804F1540994F820301D
:106CA000A3B194F82130012B10D1237CFE2B02D10B
:106CB000637C802B0AD004F110087DB13246414636
:106CC000284607F0C5FF002808BF47461C344C453E
:106CD000E4D13846BDE8F8833546DAE74746F5E7BC
:106CE0002C300020843400201FB501466846FFF791
:106CF00065FF684605F0B0FF08B106F067F80022AE
:106D0000024B83F8402005B05DF804FB2C300020D6
:106D10007FB50E461546044640B34B1E7F2B25D843
:106D200012F0400020D010220021114808F09EF8F7
:106D3000F21DD20821460E4807F0B8FF4FF0FF338E
:106D40000C49684681F84060CB6381F841502C3192
:106D5000FFF734FF684605F07FFF014618B90122AE
:106D6000684605F0CFFF012004B070BD0020FBE7AE
:106D7000583000202C300020014B1868704700BFAD
:106D80004C0E0020064B18685A6808331B681B0419
:106D900043EA0223034A0343106843EA0060704752
:106DA00040500D404C500D40014608B5104A136844
:106DB000DB07FCD572B6FFF7E5FFC1F10703C3425D
:106DC00058BFC11D0B4B0A0E1A60C1F3074243F8AE
:106DD000042CC1F3072243F8082CCAB243F80C2C48
:106DE00062B6054B19604FF40032044B1A6108BDBE
:106DF00050500D404C500D404C0E002000E100E082
:106E000008B5FDF723F90022084B1A604FF4003251
:106E1000074BC3F89021C3F89020BFF34F8FBFF307
:106E20006F8FBDE8084000F019B800BF4C0E00207D
:106E300000E100E010B50246084607490C6844B975
:106E40005360029B106093600A60FFF7ADFF20461D
:106E500010BD0320FCE700BF500E0020044B186853
:106E600020B100221A60D0E901311847704700BFF5
:106E7000500E00202DE9F04104880546752C20D0E5
:106E80007C2C3DD0002C4ED1FDF772FE284E294BB4
:106E9000294FDFF8B08018703460336857F823202A
:106EA0002AB9264A137075232B8001203EE008F88A
:106EB0000340936800218020984733680133336092
:106EC000EBE700231E4A1360194A1360184B1B4A54
:106ED0001B6812789A4204DC194B1B68002BF0D116
:106EE000E1E7184AD256002A19DA134A002052F86C
:106EF0002320104B1978FDF79DFE28B97C23D3E79A
:106F00000C4B1B788B42D0D1094B0E491A688B5C15
:106F100003F07F038B540A4A136801331360044A59
:106F200013680133D1E7002303800320BDE8F0811B
:106F3000580E00205B3C002040070020CD2300209D
:106F4000540E00205D3C002070B505880446672D76
:106F500009D0792D31D0002D35D1FDF709FE1C4B1C
:106F600018701C4B1D601C4E1A4D0AE00A282B6835
:106F700010D00D280ED07E2B03DC5A1C2A60174A35
:106F8000D054304608F0F1FC431CEFD16723238036
:106F900001201BE05A1C2A600025104A2846D554BF
:106FA0000B4B1978FDF746FE0D4B2A4685211868D4
:106FB000FDF740FE18B97923E9E78529E8D10022D9
:106FC000044B1A60CFE700230380032070BD00BF8D
:106FD0005C3C00205C0E0020600E0020CE230020D0
:106FE0002830002038B50E4C01462378254653B989
:106FF0000C4808F0A7FC08B9012323700A48FDF7E4
:1070000059FE012038BD0A2801D00D28F6D10548C7
:1070100008F098FC0028F1D000232B70EEE700BFA9
:107020004E240020600E002004070020044B054A77
:1070300000211A607F2204489A809971FDF722BED0
:10704000600E00204F24002004070020F7B50646FC
:107050000D460024084FAC4201D303B0F0BD3019F7
:1070600001A908F0A6FD04343846BDF80410FDF768
:10707000FFFCA4B2EFE700BF330921002DE9F04780
:1070800006460F469946904686B01AB97F211C489D
:10709000FBF778F9002003F029FD054660BB06B038
:1070A000BDE8F08705A908EB040008F082FDBDF8F3
:1070B0001410514503D10434A145F3DCEFE7114B23
:1070C000114A1248022F18BF1A46FDF7D1FC30466C
:1070D000FDF770FA0E4808F024FC01230293BDF876
:1070E000163000220193BDF814303946009328462B
:1070F000334603F0A9FDD2E700244FF6FF7ADBE721
:107100003D0921003A0921003709210049092100E0
:107110002408210030B50D461446194685B000B14B
:107120001AB9C1210C48FBF72DF99BB9CDE900052F
:107130000DF10A03012003AA08F08DFD50B9204685
:1071400001F026FC30B102212046BDF80A30039A36
:10715000FFF794FF05B030BD3D0921002DE9F34153
:107160000F46064618B9A2210F48FBF70BF900207D
:1071700003F0BCFC054698B902B0BDE8F08101A956
:10718000301908F016FDBDF80410414504D028461A
:10719000BDF8062008F0F5FE0434A742EFDCEBE76B
:1071A00000244FF6FF78F8E73D09210030B50D4681
:1071B0001446194685B000B11AB9D9210B48FBF71E
:1071C000E1F88BB9CDE900050DF10A03012003AA0E
:1071D00008F041FD40B9204601F0DAFB20B1BDF8CE
:1071E0000A100398FFF7BAFF05B030BD3D09210032
:1071F0002DE9F0478AB0044699461546129E5FFA7B
:1072000081F822B94FF4BD71AD48FBF7BBF828B146
:10721000012800F0FF800AB0BDE8F08716B940F2FF
:107220008D11F1E7B8F1010F0DD0B8F1020FF2D1D5
:10723000009313460DF11D0208F0D5FC002800F064
:107240008180A04807E0009313460DF11D0208F06D
:10725000CAFC18B19C4808F064FBDCE7CDE9005992
:1072600041460DF11E0309AA08F0F5FC0546002869
:10727000F0D19DF81D109548FDF7FAFB3046FDF75B
:1072800099F99348FDF7F4FBBDF81E100998FFF734
:10729000DDFE904808F045FB284603F027FC8046B9
:1072A0000028B8D09DF81D30002BB4D0BDF81E309A
:1072B000002BB0D010222946874807F0D7FD2F4673
:1072C0004FF01009DFF810A2BDF81E209DF81D3008
:1072D000A24201D99D4218DB9D429CD17F48FDF717
:1072E000C7FB3046FDF766F97A4808F01AFB7A4B7F
:1072F0007B4ACDE90337CDE901620097F0224FF0D8
:107300000001012001F0E8FE85E7099808A9204462
:1073100008F04FFCBDF820104046BDF8222008F0D0
:1073200052FE014658B9ABB2009301200423CDE9C7
:1073300001A908AA08F068FC0437BFB2013504347B
:10734000E4B2C1E74146CDE900590DF11E0309AA97
:1073500008F081FC00287FF474AF9DF81D1061488F
:10736000FDF786FB3046FDF725F95948FDF780FB10
:10737000BDF81E100998FFF769FE564808F0D1FACB
:10738000204603F0B3FB074600283FF444AF102229
:107390002146514807F06AFD9DF81D5015B1BDF812
:1073A0001E5095BB4D48FDF763FB3046FDF702F9D3
:1073B000484808F0B6FA484B4B4ACDE90335CDE9C9
:1073C000016200959AE7099808A9204408F0F1FBAA
:1073D0003846BDF82220BDF8201008F0F4FD68B151
:1073E00010234FF00001CDE9019301200423CDF8D3
:1073F000008008AA08F008FC0435ADB20434E4B2F9
:10740000BDF81E30A342DED8CCE70025DFF8C890D7
:10741000A846F5E716B940F2A511F5E6304601F0A9
:10742000B7FA00283FF4F7AE304601F045FD0028DA
:107430003FF4F1AEB8F1000F7FF4EDAE01F022FCA5
:107440000128074603D002281ED0284803E74146FA
:10745000CDE9005908AB09AA08F0FDFB08B12448A2
:10746000F9E62448FDF704FBBDF820100998FFF762
:10747000EDFD184808F055FA39463046BDF8203081
:10748000099AFFF7FBFDC6E641462046CDE90059C3
:1074900008AB09AA08F0DFFB0028E0D11648FDF789
:1074A000E7FABDF820100998FFF7D0FD094808F069
:1074B00038FABDF820100998FFF750FEABE600BF80
:1074C0003D092100010A2100760921009D092100C2
:1074D000B80A210024082100CF240020DA09210065
:1074E000157120002B0A2100AD712000040B210032
:1074F0006B0A2100930A2100CA0A2100B0230B491C
:10750000024603FB0013002030B5014604465881B3
:10751000074B9D7825B11D78954204BF9C700130C2
:1075200001310C2903F17103F3D130BD6C0E002041
:10753000EA2400200122044BFD211A7000229970D8
:107540005A70DA70704700BFDF24002010B5134C6A
:107550000220A179FDF7E4F9A379112B09D1218D3E
:10756000638D994228BF1946BDE810400120FDF700
:10757000D7B9062B06D10A4B1B8828331A19195B79
:107580005388EEE73A2B06D1054B28341B88195B4C
:1075900049BA89B2E8E70021E6E700BF04360020D7
:1075A0005C23002030B513780446087A83F0020388
:1075B00098421FD1487A537898421BD1887A9378A1
:1075C000984217D1C87AD378984213D1087B13799F
:1075D00098420FD1487B537998420BD1887B93799D
:1075E000984207D1C87BD379984203D10320A040A9
:1075F000C0B230BD0E4B08891D461A6860B9488973
:10760000B0F57F4F08D18889FE2805D1C9890220AD
:1076100022F8021B1A60EAE701F1080303CB0832E3
:1076200042F8080C42F8041C01202A60DFE700BF82
:10763000CC0F002010B5084C01462378012B08D14F
:107640000822A01C07F004FB00280CBF20460020E5
:1076500010BD0020FCE700BFDF24002008B5044B6C
:1076600000219B6803489847BDE8084006F026BD06
:10767000F8042100DD76200038B5134B13491C783F
:10768000134B01441D68134B2A461B68181907F059
:107690000DFB601980B2FDF765F8FDF72BFB044682
:1076A00068B1FFF7DBFF2046FDF75CFB2046FDF7E6
:1076B00043FB094B1B68012B01D0032B01DD00208C
:1076C00038BD0120FCE700BF362A00200436002028
:1076D000D80F0020DC0F0020D00F002070B5124B17
:1076E0000C461B68154613B108469B6898470F4B1C
:1076F0000D201C60FDF728F90D49064607F0EAFF4A
:1077000080B92A4621463046FCF7AAFB094B2146A0
:1077100030462A465B6C984729462046BDE87040B3
:1077200008F0F0BC70BD00BF680E0020D00F002034
:107730007C0521007C042100F8B50E460546FDF7C6
:107740001BF8114B1978441A631E6D2B19D80F4B77
:10775000002218469F787FB971235343C218567090
:1077600094700B4AC55415680333224629441844C3
:1077700007F09CFA2046F8BD01320C2A03F1710390
:10778000E8D14FF0FF34F5E7362A0020EA24002044
:10779000DC0F00202DE9F0414FEA121802F00F042F
:1077A000B8F10F0F08BF4FF010080F2C07461D4609
:1077B00008BF102411B1424607F078FA08EB040222
:1077C0000F2A06DC0021C2F1100207EB080007F0C7
:1077D0004DFBF4B1144A154D16682B689B1B1E19FE
:1077E000FCF7CAFF86421CDC2E68C4F1100022465A
:1077F0003146384407F05AFA022C06D1B8F10A0F84
:107800009FBFFF23FB72FE233B7334442C60012097
:1078100008E0B8F1000FFAD02946384608F0A3FC7A
:10782000F5E70020BDE8F081DC0F0020CC0F002040
:1078300000232DE9F04FC04EC04D85B033702B7042
:107840000446FDF717F8FCF7A9FFBD4ABD4B1268C7
:10785000CDE90056186003930AB1FFF777FE0420C4
:1078600006F060FB01460520FDF75AF8B6490D20E9
:10787000002C18BF2146FDF75FF8B44B9B69984771
:10788000B34B0028186003DC002005B0BDE8F08F82
:10789000039BB04DD3F80080009B40441F78023713
:1078A00008EB070404F1260282422C60ECD200238C
:1078B000A94808F80730FFF7BDFE8346A748FFF741
:1078C000B9FE8146BBF1000F02D1002800F02281F1
:1078D00001342C608025A24C9E4E94F801C0227881
:1078E0004FEA1C1343EA0213D9B2C3F3850343EAF8
:1078F000811302F00F022CF00F011CF00F0F58B291
:1079000042EA0102DBB240F007816188002940F0C1
:107910000381002A00F038814FF0700A326802F8C3
:10792000013B3260A379112B07D033B13C2B04D03B
:10793000A3F12B02012A00F22A814AF0040AE3791A
:10794000402B00F02981FF2B00F02981012B40F012
:1079500029814AF0010A2389002B40F02881A2895D
:1079600063891343E2891343228A1343628A1343D0
:10797000A28A1343E28A13439BB2002B40F0B782E2
:1079800045F04005237EFF2B40F07681617E628BBF
:107990000229336845F0080740F03281002A40F0A0
:1079A0005A81E08BA28B0243208C0243608C0243FD
:1079B000A08C024392B2002A40F0238194F8262042
:1079C000002A40F01E8194F8272045F00B0503F8AB
:1079D000012B33602823019AD6F80080137000230E
:1079E000DFF88C915B4E0193564A3368D2F800C0A1
:1079F000574A1068B9F1000F10D099F80040112CC7
:107A000000F0C981002C00F0BE813C2C00F0738195
:107A10002B2C00F0B7812C2C00F0B981009AA3EB3D
:107A20000C031278DCB2009B0CF802A06244557083
:107A30001C704C4D404B29881B78CA1AA6188642E8
:107A400040F34282041B043C24F00704461F121B2F
:107A5000921B002AC8BF02F1FF3526F00707CABFF4
:107A600095FBF7F502250335FDF73EF90135A842F0
:107A7000FFF40AAF002CFFF607AF00223A4B1A6062
:107A80003A4BB3F8008008F101021A80039B1D688D
:107A9000009B294693F80090281D4A4607F07CF980
:107AA000009B09F1040983F80090DFF8B89085F88D
:107AB0000380B9F800301B0A63F03F032B70B9F85C
:107AC00000306B704FEA1823DFF8A880AB70C8F85D
:107AD0000040194C2078FFF7CFFD00283FF4D4AECA
